:020000040800F2
:100000000000082419D80008C94D0008CD4D00088B
:10001000FD4D0008FF4D0008014E000800000000E3
:10002000000000000000000000000000034E000877
:10003000054E000800000000074E0008094E0008A9
:1000400069D8000869D8000869D8000869D800088C
:1000500069D8000869D8000869D8000869D800087C
:1000600069D8000869D8000869D80008114E00084E
:1000700069D8000869D8000869D8000869D800085C
:1000800069D8000869D8000869D8000869D800084C
:10009000214E000869D80008314E0008A14E000822
:1000A00069D8000869D8000869D80008414E0008DE
:1000B000514E0008614E000869D8000869D8000850
:1000C00069D8000869D8000869D8000869D800080C
:1000D00069D80008714E000869D8000869D800087E
:1000E00069D8000869D800080000000069D8000835
:1000F00069D8000869D8000869D8000869D80008DC
:1001000069D8000869D80008AD4E000869D8000811
:1001100069D8000869D8000869D80008914E00081D
:1001200069D8000869D8000869D8000869D80008AB
:1001300069D8000869D8000869D8000869D800089B
:1001400000000000000000000000000000000000AF
:1001500069D8000869D8000869D8000869D800087B
:1001600069D8000869D8000869D8000869D800086B
:1001700069D8000869D8000869D8000800000000A4
:1001800069D8000869D8000869D8000869D800084B
:1001900069D8000869D8000869D8000869D800083B
:1001A00069D8000869D8000869D8000869D800082B
:1001B00069D8000869D8000869D8000869D800081B
:1001C00069D8000869D8000869D8000869D800080B
:1001D00069D8000869D8000869D8000869D80008FB
:1001E00069D8000869D8000869D8000869D80008EB
:1001F00069D8000869D8000869D8000869D80008DB
:1002000069D8000869D8000869D8000869D80008CA
:1002100069D8000869D80008814E000869D800082C
:1002200069D8000869D8000869D8000800000000F3
:1002300069D8000869D800080000000069D80008E3
:1002400069D8000869D8000869D8000869D800088A
:1002500069D8000869D8000869D8000869D800087A
:1002600069D8000869D8000869D8000869D800086A
:1002700069D8000869D8000869D8000800000000A3
:1002800069D8000869D8000869D800080000000093
:080290000000000069D800081D
:1002A00010B5054C237833B9044B13B10448AFF3B0
:1002B00000800123237010BD4807002400000000C7
:1002C0008C4E010808B5034B1BB103490348AFF33B
:1002D000008008BD000000004C0700248C4E01087F
:1002E000034613F8012B002AFBD1181A0138704776
:1002F00001F0FF01102A2BDB10F0070F08D010F8D7
:10030000013B013A8B422DD010F0070F42B3F6D1DA
:10031000F0B441EA012141EA014122F007047FF0F3
:1003200000070023F0E80256083C85EA010586EA4A
:10033000010685FA47F5A3FA87F586FA47F6A5FA86
:1003400087F68EB9EED1F0BC01F0FF0102F0070292
:1003500032B110F8013B013A83EA010313B1F8D13D
:100360000020704701387047002D06BF354603381E
:10037000073815F0010F07D1013015F4807F02BF57
:10038000013015F4C03F0130F0BC0138704700BFA8
:1003900081F0004102E000BF83F0004330B54FEA36
:1003A00041044FEA430594EA050F08BF90EA020FA3
:1003B0001FBF54EA000C55EA020C7FEA645C7FEA36
:1003C000655C00F0E2804FEA5454D4EB5555B8BF59
:1003D0006D420CDD2C4480EA020281EA030382EACA
:1003E000000083EA010180EA020281EA0303362D5C
:1003F00088BF30BD11F0004F4FEA01314FF4801C2F
:100400004CEA113102D0404261EB410113F0004F40
:100410004FEA03334CEA133302D0524263EB4303F7
:1004200094EA050F00F0A780A4F10104D5F1200E95
:100430000DDB02FA0EFC22FA05F2801841F10001F0
:1004400003FA0EF2801843FA05F359410EE0A5F1C4
:1004500020050EF1200E012A03FA0EFC28BF4CF0F5
:10046000020C43FA05F3C01851EBE37101F00045AB
:1004700007D54FF0000EDCF1000C7EEB00006EEBB8
:100480000101B1F5801F1BD3B1F5001F0CD3490842
:100490005FEA30004FEA3C0C04F101044FEA445299
:1004A00012F5800F80F09A80BCF1004F08BF5FEA20
:1004B000500C50F1000041EB045141EA050130BD00
:1004C0005FEA4C0C404141EB0101013C28BFB1F512
:1004D000801FE9D291F0000F04BF01460020B1FA5D
:1004E00081F308BF2033A3F10B03B3F120020CDA30
:1004F0000C3208DD02F1140CC2F10C0201FA0CF00E
:1005000021FA02F10CE002F11402D8BFC2F1200C72
:1005100001FA02F120FA0CFCDCBF41EA0C01904028
:10052000E41AA2BF01EB0451294330BD6FEA040471
:100530001F3C1CDA0C340EDC04F11404C4F120025C
:1005400020FA04F001FA02F340EA030021FA04F36E
:1005500045EA030130BDC4F10C04C4F1200220FAC5
:1005600002F001FA04F340EA0300294630BD21FA03
:1005700004F0294630BD94F0000F83F4801306BFC9
:1005800081F480110134013D4EE77FEA645C18BFBD
:100590007FEA655C29D094EA050F08BF90EA020F54
:1005A00005D054EA000C04BF1946104630BD91EA4C
:1005B000030F1EBF0021002030BD5FEA545C05D14F
:1005C0004000494128BF41F0004130BD14F580048E
:1005D0003CBF01F5801130BD01F0004545F0FE4102
:1005E00041F470014FF0000030BD7FEA645C1ABF37
:1005F000194610467FEA655C1CBF0B46024650EA6E
:10060000013406BF52EA033591EA030F41F4002199
:1006100030BD00BF90F0000F04BF0021704730B51F
:100620004FF4806404F132044FF000054FF00001F4
:1006300050E700BF90F0000F04BF0021704730B5B5
:100640004FF4806404F1320410F0004548BF40428A
:100650004FF000013EE700BF42004FEAE2014FEADF
:1006600031014FEA02701FBF12F07F4393F07F4FBA
:1006700081F06051704732F07F4208BF704793F0BD
:100680007F4F04BF41F40021704730B54FF46074D0
:1006900001F0004521F000411CE700BF50EA0102D3
:1006A00008BF704730B54FF000050AE050EA01027C
:1006B00008BF704730B511F0004502D5404261EBEC
:1006C00041014FF4806404F132045FEA915C3FF42D
:1006D000D8AE4FF003025FEADC0C18BF03325FEACA
:1006E000DC0C18BF033202EBDC02C2F1200300FA7B
:1006F00003FC20FA02F001FA03FE40EA0E0021FAA0
:1007000002F11444BDE600BF70B54FF0FF0C4CF48D
:10071000E06C1CEA11541DBF1CEA135594EA0C0F3F
:1007200095EA0C0F00F0DEF82C4481EA030621EA7A
:100730004C5123EA4C5350EA013518BF52EA0335B5
:1007400041F4801143F4801338D0A0FB02CE4FF067
:100750000005E1FB02E506F00042E0FB03E54FF097
:100760000006E1FB03569CF0000F18BF4EF0010E8F
:10077000A4F1FF04B6F5007F64F5407404D25FEA8B
:100780004E0E6D4146EB060642EAC62141EA55513E
:100790004FEAC52040EA5E504FEACE2EB4F1FD0C80
:1007A00088BFBCF5E06F1ED8BEF1004F08BF5FEAFE
:1007B000500E50F1000041EB045170BD06F00046B0
:1007C00046EA010140EA020081EA0301B4EB5C045D
:1007D000C2BFD4EB0C0541EA045170BD41F4801155
:1007E0004FF0000E013C00F3AB8014F1360FDEBF7A
:1007F000002001F0004170BDC4F10004203C35DA56
:100800000C341BDC04F11404C4F1200500FA05F3D8
:1008100020FA04F001FA05F240EA020001F0004279
:1008200021F0004110EBD37021FA04F642EB0601EF
:100830005EEA430E08BF20EAD37070BDC4F10C0419
:10084000C4F1200500FA04F320FA05F001FA04F2DD
:1008500040EA020001F0004110EBD37041F10001C9
:100860005EEA430E08BF20EAD37070BDC4F12005D4
:1008700000FA05F24EEA020E20FA04F301FA05F23C
:1008800043EA020321FA04F001F0004121FA04F2E4
:1008900020EA020000EBD3705EEA430E08BF20EAB4
:1008A000D37070BD94F0000F0FD101F000464000EE
:1008B00041EB010111F4801F08BF013CF7D041EA70
:1008C000060195F0000F18BF704703F00046520074
:1008D00043EB030313F4801F08BF013DF7D043EA45
:1008E0000603704794EA0C0F0CEA135518BF95EAFB
:1008F0000C0F0CD050EA410618BF52EA4306D1D182
:1009000081EA030101F000414FF0000070BD50EAA0
:10091000410606BF1046194652EA430619D094EA2A
:100920000C0F02D150EA013613D195EA0C0F05D114
:1009300052EA03361CBF104619460AD181EA030168
:1009400001F0004141F0FE4141F470014FF0000020
:1009500070BD41F0FE4141F4780170BD70B54FF0BB
:10096000FF0C4CF4E06C1CEA11541DBF1CEA13553B
:1009700094EA0C0F95EA0C0F00F0A7F8A4EB05041D
:1009800081EA030E52EA03354FEA013100F0888014
:100990004FEA03334FF0805545EA131343EA1263DD
:1009A0004FEA022245EA111545EA10654FEA002692
:1009B0000EF000419D4208BF964244F1FD0404F54B
:1009C000407402D25B084FEA3202B61A65EB0305A7
:1009D0005B084FEA32024FF480104FF4002CB6EB64
:1009E000020E75EB030E22BFB61A754640EA0C00E4
:1009F0005B084FEA3202B6EB020E75EB030E22BF24
:100A0000B61A754640EA5C005B084FEA3202B6EB64
:100A1000020E75EB030E22BFB61A754640EA9C0023
:100A20005B084FEA3202B6EB020E75EB030E22BFF3
:100A3000B61A754640EADC0055EA060E18D04FEAB1
:100A4000051545EA16754FEA06164FEAC30343EA51
:100A500052734FEAC2025FEA1C1CC0D111F4801F1E
:100A60000BD141EA00014FF000004FF0004CB6E717
:100A700011F4801F04BF01430020B4F1FD0C88BFB6
:100A8000BCF5E06F3FF6AFAEB5EB030C04BFB6EBC1
:100A9000020C5FEA500C50F1000041EB045170BDB4
:100AA0000EF0004E4EEA113114EB5C04C2BFD4EBE1
:100AB0000C0541EA045170BD41F480114FF0000E65
:100AC000013C90E645EA060E8DE60CEA135594EAE1
:100AD0000C0F08BF95EA0C0F3FF43BAF94EA0C0FE4
:100AE0000AD150EA01347FF434AF95EA0C0F7FF459
:100AF00025AF104619462CE795EA0C0F06D152EAAD
:100B000003353FF4FDAE1046194622E750EA410690
:100B100018BF52EA43067FF4C5AE50EA41047FF4A1
:100B20000DAF52EA43057FF4EBAE12E74FF0FF3C06
:100B300006E000BF4FF0010C02E000BF4FF0010CD7
:100B40004DF804CD4FEA410C7FEA6C5C4FEA430C50
:100B500018BF7FEA6C5C1BD001B050EA410C0CBF9F
:100B600052EA430C91EA030F02BF90EA020F002001
:100B7000704710F1000F91EA030F58BF994208BF68
:100B800090422CBFD8176FEAE37040F00100704725
:100B90004FEA410C7FEA6C5C02D150EA013C07D17C
:100BA0004FEA430C7FEA6C5CD6D152EA033CD3D0C7
:100BB0005DF8040B704700BF8446104662468C46C1
:100BC0001946634600E000BF01B5FFF7B7FF0028F4
:100BD00048BF10F1000F01BD4DF808EDFFF7F4FF1D
:100BE0000CBF012000205DF808FB00BF4DF808EDA8
:100BF000FFF7EAFF34BF012000205DF808FB00BFCB
:100C00004DF808EDFFF7E0FF94BF012000205DF8EC
:100C100008FB00BF4DF808EDFFF7CEFF94BF0120A1
:100C200000205DF808FB00BF4DF808EDFFF7C4FF9A
:100C300034BF012000205DF808FB00BF4FEA410CE3
:100C40007FEA6C5C02D150EA013C0AD14FEA430CC6
:100C50007FEA6C5C02D152EA033C02D14FF0000003
:100C600070474FF0010070474FEA410212F5001241
:100C700015D211D56FF47873B3EB625212D94FEAE3
:100C8000C12343F0004343EA505311F0004F23FACD
:100C900002F018BF404270474FF00000704750EA22
:100CA000013005D111F0004008BF6FF000407047DF
:100CB0004FF00000704700BF4A0011D212F5001239
:100CC00011D20DD56FF47873B3EB62520ED44FEAA4
:100CD000C12343F0004343EA505323FA02F0704724
:100CE0004FF00000704750EA013002D14FF0FF3062
:100CF00070474FF0000070474FEA4102B2F1E04305
:100D000024BFB3F5001CDCF1FE5C0DD901F0004CF2
:100D10004FEAC0024CEA5070B2F1004F40EB830042
:100D200008BF20F00100704711F0804F21D113F16E
:100D30003872BCBF01F00040704741F480114FEAA7
:100D40005252C2F11802C2F1200C10FA0CF320FA30
:100D500002F018BF40F001004FEAC1234FEAD3234D
:100D600003FA0CFC40EA0C0023FA02F34FEA4303B7
:100D7000CCE77FEA625307D150EA01331EBF4FF040
:100D8000FE4040F44000704701F0004040F0FE405B
:100D900040F40000704700BF53B94AB9002908BFAA
:100DA00000281CBF4FF0FF314FF0FF3000F074B946
:100DB000ADF1080C6DE904CE00F006F8DDF804E0B2
:100DC000DDE9022304B070472DE9F047089D044691
:100DD0008E46002B4DD18A42944669D9B2FA82F2EE
:100DE00052B101FA02F3C2F1200120FA01F10CFA2A
:100DF00002FC41EA030E94404FEA1C48210CBEFB62
:100E0000F8F61FFA8CF708FB16E341EA034306FBEA
:100E100007F199420AD91CEB030306F1FF3080F079
:100E20001F81994240F21C81023E63445B1AA4B2C6
:100E3000B3FBF8F008FB103344EA034400FB07F768
:100E4000A7420AD91CEB040400F1FF3380F00A81A9
:100E5000A74240F207816444023840EA0640E41B9E
:100E600000261DB1D4400023C5E900433146BDE84A
:100E7000F0878B4209D9002D00F0EF800026C5E9EC
:100E8000000130463146BDE8F087B3FA83F6002E04
:100E90004AD18B4202D3824200F2F980841A61EB7C
:100EA000030301209E46002DE0D0C5E9004EDDE79A
:100EB00002B9FFDEB2FA82F2002A40F09280A1EB82
:100EC0000C014FEA1C471FFA8CFE0126200CB1FBD7
:100ED000F7F307FB131140EA01410EFB03F08842D0
:100EE00008D91CEB010103F1FF3802D2884200F25D
:100EF000CB804346091AA4B2B1FBF7F007FB1011EF
:100F000044EA01440EFB00FEA64508D91CEB04048C
:100F100000F1FF3102D2A64500F2BB800846A4EBE7
:100F20000E0440EA03409CE7C6F12007B34022FAD2
:100F300007FC4CEA030C20FA07F401FA06F31C4301
:100F4000F9404FEA1C4900FA06F3B1FBF9F8200C0E
:100F50001FFA8CFE09FB181140EA014108FB0EF054
:100F6000884202FA06F20BD91CEB010108F1FF3AA4
:100F700080F08880884240F28580A8F102086144B0
:100F8000091AA4B2B1FBF9F009FB101144EA0141BE
:100F900000FB0EFE8E4508D91CEB010100F1FF3469
:100FA0006CD28E456AD90238614440EA0840A0FB01
:100FB0000294A1EB0E01A142C846A64656D353D0D7
:100FC0005DB1B3EB080261EB0E0101FA07F722FAFB
:100FD00006F3F1401F43C5E9007100263146BDE824
:100FE000F087C2F12003D8400CFA02FC21FA03F387
:100FF000914001434FEA1C471FFA8CFEB3FBF7F008
:1010000007FB10360B0C43EA064300FB0EF69E422C
:1010100004FA02F408D91CEB030300F1FF382FD2C5
:101020009E422DD9023863449B1B89B2B3FBF7F66D
:1010300007FB163341EA034106FB0EF38B4208D946
:101040001CEB010106F1FF3816D28B4214D9023E87
:101050006144C91A46EA004638E72E46284605E7A5
:101060000646E3E61846F8E64B45A9D2B9EB020876
:1010700064EB0C0E0138A3E74646EAE7204694E706
:101080004046D1E7D0467BE7023B614432E7304639
:1010900009E76444023842E7704700BF38B50022D0
:1010A000002304460D46FFF7A1FD28B92046294636
:1010B000BDE8384000F00AB8204605F1004100F0D4
:1010C00005F8404261EB410138BD00BFD0B50C4B83
:1010D000002206460F46FFF717FBFFF7EDFD04461B
:1010E000FFF798FA074B0022FFF70EFB02460B466C
:1010F00030463946FFF750F9FFF7DEFD2146D0BDF7
:101100000000F03D0000F04170B50D4D0D4C641B2A
:10111000A4100026A64209D10B4D0C4C13F0B6FECC
:10112000641BA4100026A64205D170BD55F8043BEF
:1011300098470136EEE755F8043B98470136F2E749
:10114000405701084057010840570108445701081B
:1011500002440346934200D1704703F8011BF9E7AC
:101160002DE9FF4755EC104B002D0E4619462B4636
:10117000BBBF05F100431D4600232D230B700D9BC3
:10118000DDF830A0914623F02008BCBF224614466B
:10119000B8F1460F05D0B8F1450F00D10136022154
:1011A00000E0032103AB019302AB009345EC104B2D
:1011B0005346324600F0CCFCB8F1470F074602D147
:1011C00019F0010F22D0B8F1460F07EB060910D134
:1011D0003B78302B0AD10022002320462946FFF716
:1011E000FBFC18B9C6F10106CAF80060DAF8003055
:1011F00099440022002320462946FFF7EDFC08B160
:10120000CDF80C903022039B4B4507D3039B0E9ADD
:10121000DB1B3846136004B0BDE8F087591C03910E
:101220001A70F0E7F7B503460029B8BF494203F842
:10123000022BB4BF2D222B22092942702ADD0DF189
:101240000704A4460A27A6460A4691FBF7F607FBC1
:1012500016153035632A04F1FF340EF8015C31466F
:10126000F1DC3031AEF1020504F8011C441C2946C2
:1012700061450AD30DF10902A2EB0E02654588BF54
:1012800000221344181A03B0F0BD11F8012B04F822
:10129000012FEDE7302330318370C170031DF1E77A
:1012A0002DE9F04F2DED028B8DB00C46DDF86080FE
:1012B00016461F46054601F039FAD0F800A0504600
:1012C000FFF70EF800230A9323680593D8F800303F
:1012D00094F818B0073323F0070303F10802C8F8A5
:1012E0000020D3E90023C4E91223D4E9128929F0AC
:1012F00000430793CDF8188008EE100A9F4BDDE9F4
:1013000006014FF0FF32FFF799FC88BBDDE90601CB
:101310009A4B4FF0FF32FFF773FC48BB00220023CB
:1013200040464946FFF762FC10B12D2384F8433054
:10133000934B9448BBF1470F94BF984680460323D4
:101340002361059B23F0040222604FF000090097FF
:1013500033460BAA2146284600F0D8F9013040F068
:1013600090804FF0FF300DB0BDEC028BBDE8F08FE8
:1013700042464B4640464946FFF760FC40B14B466B
:10138000002BBCBF2D2384F843307F487F4BD1E72F
:1013900063680BF0DF0206925A1C3FD1062363609C
:1013A000059B616843F48062002303930AABCDE997
:1013B00001B309AB49EC108B009322600DF12303BC
:1013C0002846FFF7CDFE069B0999472B804608D19A
:1013D000C81C02DB6368994241DDABF1020B5FFA86
:1013E0008BFBBBF1650F20D801395A4604F1500040
:1013F0000991FFF717FF0A9A1318012A8146236102
:1014000002DC2268D20701D5013323619DF8233025
:10141000002B9CD02D2384F8433098E7069A472A66
:10142000BED1002BBCD10123B9E7BBF1660F18D1A7
:10143000002963680BDD216113B92268D00702D54A
:1014400001330B442361A1654FF00009DEE713B9B6
:101450002268D20701D50233F4E70123F2E74FF007
:10146000670B0A9B994205DB23682161D807EAD5FF
:101470004B1CE7E70029D4BFC1F10202012213444B
:10148000E0E723685A0507D42369424631462846D7
:10149000B84701302CD164E7BBF1650F40F2E08022
:1014A000D4E9120100220023FFF796FB002834D074
:1014B000374A012331462846B84701303FF451AF3F
:1014C000DDE909239A4202DB2368D80710D518EE1C
:1014D000103A524631462846B84701303FF441AFF2
:1014E0004FF0000804F11A090A9B013B434509DC4F
:1014F00023689B0700F10581E0680B9B9842B8BF09
:10150000184630E701234A4631462846B84701309D
:101510003FF427AF08F10108E6E7099B002B39DC0F
:101520001B4A012331462846B84701303FF419AF22
:10153000DDE90923134302D12368D907D8D518EE72
:10154000103A524631462846B84701303FF409AFB9
:101550004FF0000904F11A0A099B5B424B4501DC7C
:101560000A9B92E70123524631462846B84701308C
:101570003FF4F7AE09F10109EEE700BFFFFFEF7F8F
:10158000F84E0108FC4E0108044F0108004F010805
:10159000084F01080A9AA36D9A42A8BF1A46002A6A
:1015A000914637DC4FF0000B29EAE97904F11A0281
:1015B000A36D0593A3EB09035B4533DCDDE9092348
:1015C0009A423BDB2368DA0738D40A9B059A0999CB
:1015D0009A1AA3EB01099145A8BF9146B9F1000FF2
:1015E00035DC4FF0000829EAE97904F11A0ADDE94F
:1015F00009239B1AA3EB090343457FF779AF012326
:10160000524631462846B84701303FF4AAAE08F1A9
:101610000108ECE71346314642462846B8470130F8
:10162000C0D19EE60123314628460592B8470130D5
:101630003FF497AE059A0BF1010BB9E718EE103A9B
:10164000524631462846B8470130BED189E6059A50
:101650004B46424431462846B8470130C1D180E666
:101660000A9A012A01DCDB0738D5012342463146BC
:101670002846B84701303FF474AE18EE103A52468F
:1016800031462846B84701303FF46BAED4E9120129
:1016900000220023FFF7A0FAD8B90A9B08F1010243
:1016A000013B31462846B84701300ED159E60123A7
:1016B000524631462846B84701303FF452AE08F151
:1016C00001080A9B013B4345F1DC4B4604F1500203
:1016D000DCE64FF0000804F11A0AF2E70123424663
:1016E000DFE701234A4631462846B84701303FF438
:1016F00038AE08F10108E3680B995B1A4345F0DC4A
:10170000FAE64FF0000804F11909F4E72DE9F04773
:10171000164699468A680B69DDF820809342B8BF67
:101720001346336091F8432007460C460AB1013353
:1017300033602368990642BF3368023333602568FB
:1017400015F0060506D104F1190AE36832689B1A00
:10175000AB4226DC94F84320131E226818BF0123F5
:1017600092062BD404F1430249463846C047013063
:101770001ED02368E568326803F00603042B08BF17
:10178000AD1AA36822690CBF25EAE57500259342CE
:10179000C4BF9B1AED1800261A34B5421AD1002096
:1017A00008E00123524649463846C047013003D17C
:1017B0004FF0FF30BDE8F0870135C6E7E1185A1C4D
:1017C000302081F84300224494F8451082F84310F9
:1017D0000233C7E70123224649463846C047013055
:1017E000E6D00136D9E700002DE9FF470F7E0C9DBA
:1017F000782F914680460C469A4601F1430207D85D
:10180000622F0AD8002F00F0D880582F00F0A38054
:1018100004F1420584F842703AE0A7F16303152B06
:10182000F6D801A151F823F0811800089518000896
:1018300011180008111800081118000811180008E4
:101840009518000811180008111800081118000850
:1018500011180008A1190008C5180008831900080C
:101860001118000811180008C31900081118000801
:10187000C518000811180008111800088B19000875
:101880002B681A1D1B682A6004F1420584F8423057
:101890000123A3E020682968060601F104030AD5A4
:1018A0000E682B60002E03DA2D23764284F8433035
:1018B0005E480A2319E00E682B6010F0400F18BF35
:1018C00036B2EFE72B682068191D2960010601D5A3
:1018D0001E6802E04606FBD51E8854486F2F0CBFD9
:1018E00008230A23002184F843106568A560002DB1
:1018F000A2BF216821F0040121600EB9002D4DD056
:101900001546B6FBF3F103FB1167C75D05F8017DD2
:101910003746BB420E46F4D9082B0BD12368DE07AD
:1019200008D5236961689942DEBF302305F8013C80
:1019300005F1FF35521B2261CDF800A04B4603AAEA
:1019400021464046FFF7E2FE01304CD14FF0FF3018
:1019500004B0BDE8F087354881F8457029682368F0
:1019600051F8046B29601D0614D5DF0744BF43F00E
:10197000200323601EB9236823F020032360102373
:10198000B0E7236843F0200323607823284884F8D5
:101990004530E3E7590648BFB6B2E6E71546BBE770
:1019A0002B6826686169181D286035061B6801D5FB
:1019B000196002E07006FBD51980002323611546EB
:1019C000BAE72B681A1D2A601D6862680021284644
:1019D000FEF78EFC08B1401B606063682361002342
:1019E00084F84330A8E723692A4649464046D04751
:1019F0000130ABD023689B0713D4E068039B984267
:101A0000B8BF1846A4E70123324649464046D047AE
:101A100001309BD00135E36803995B1AAB42F2DCDD
:101A2000EBE7002504F11906F5E700BF0A4F0108AE
:101A30001B4F01082DE9F74F03690C69A3420746C4
:101A4000C0F28180013C01F1140800F1140505EB9E
:101A50008403019358F8243055F8242001339A4226
:101A60004FEA840B08EB8409B2FBF3F631D34FF055
:101A7000000E4046AC46F24650F8042B93B206FBEB
:101A800003E34FEA134E9BB2AAEB0303DCF800A07A
:101A9000120C13FA8AF306FB02E20093009B4FEA52
:101AA000124E92B2C2EB1A4202EB2342BDF8003052
:101AB000814543EA02434CF8043B4FEA224ADBD219
:101AC00055F80B302BB9019B043B9D421A462ED38F
:101AD0003C61384601F018F9002824DB013628461D
:101AE0004FF0000C58F8042BD0F800E093B2ACEBA8
:101AF0000303120C13FA8EF3C2EB1E4202EB2342D5
:101B00009BB243EA0243C14540F8043B4FEA224CF2
:101B1000E8D255F8242005EB840322B9043B9D420A
:101B20001A460AD33C61304603B0BDE8F08F126814
:101B3000043B002ACCD1013CC7E71268043B002AD1
:101B4000F0D1013CEBE70020EEE7000000000000D0
:101B50002DE9F04F2DED048B57EC106B93B0456AD7
:101B6000DDF88080069110EE10AA044609920C93CD
:101B7000BB4675B9102000F0DDFD0246606220B959
:101B8000A74BEA21A74801F0BBFBC0E9015505605E
:101B9000C560636A196851B15A684A60012393406D
:101BA0008B60204600F024FE636A00221A603B1E10
:101BB000AABF002323F0004BC8F800309A4BBCBFEB
:101BC0000122C8F8002033EA0B031BD10C9A42F221
:101BD0000F731360CBF31303334300F09285219B03
:101BE00063B9924B22E0924B01930833219A136020
:101BF000019813B0BDEC048BBDE8F08F8B4B0193C3
:101C00000333F3E70022002350465946FEF7E4FF72
:101C10004BEC19AB804658B10C9A01231360219B01
:101C2000002B00F06B8583481860431E0193DFE7AB
:101C30004BEC10AB10AA11A9204601F087F9CBF3A9
:101C40000A5508EE100A002D00F0848019EE903A33
:101C5000C3F3130343F07F57564647F44017A5F2EA
:101C6000FF35CDF83880744B002230463946FEF7F8
:101C700093FB65A3D3E90023FEF746FD64A3D3E9F4
:101C80000023FEF78BFB064628460F46FEF7D2FCE4
:101C900061A3D3E90023FEF737FD02460B46304629
:101CA0003946FEF77BFB06460F46FEF7DDFF0022B6
:101CB0000090002330463946FEF798FF50B1009857
:101CC000FEF7B8FC32463B46FEF786FF10B9009B94
:101CD000013B0093009B162B5AD8009A574B03EBFD
:101CE000C203D3E9002351EC190BFEF77FFF002854
:101CF00050D0009B013B009300230B93109B5D1B76
:101D00006B1E059345BFC5F1010304930023002317
:101D10004CBF05930493009B002B3DDB059B009A71
:101D20000A921344059300230793069B092B00F2A4
:101D30008980052BC4BF043B0693069BA3F10203D5
:101D4000CCBF00250125032B00F28780DFE803F0DC
:101D50002D3A3859DDE910531D4405F23243202B4A
:101D6000C1BFC3F1400305F212400BFA03F326FA98
:101D700000F0DABFC3F1200306FA03F01843FEF7C0
:101D800049FC01230646A1F1F877013D0E936AE76D
:101D90000123B2E70B90B1E7049B009A9B1A0493CE
:101DA0005342079300230A93BFE700230893099B3C
:101DB000002B55DC0123CDE902331A4609920CE0D1
:101DC0000123F3E70023099A0893009B134402932D
:101DD0000133012B0393B8BF0123606A00224260E4
:101DE000042202F114069E4241683DD9204600F0CB
:101DF000BFFC019000283BD1114B02464FF4D57136
:101E0000C0E60123DFE700BF61436F63A787D23FCE
:101E1000B3C8608B288AC63FFB799F501344D33FD9
:101E2000394F0108504F01080000F07F354F01087D
:101E30002C4F0108094F01080000F83F88500108A5
:101E4000CE4F010801250023069308954FF0FF337C
:101E5000CDE9023300221223B0E701230893F5E70E
:101E6000099BCDE90233B8E7013141605200B8E780
:101E7000636A019A1A60039B0E2B00F29D80002D6D
:101E800000F09A80009B002B32DDB74A03F00F036D
:101E900002EBC303D3E90089009BD8054FEA23175F
:101EA00016D5B24B51EC190BD3E90823FEF756FDBA
:101EB00007F00F0782468B460325AC4E57B94246C2
:101EC0004B4650465946FEF749FD82468B4628E070
:101ED0000225F2E7F90708D540464946D6E900232E
:101EE000FEF712FC0135804689467F100836E5E78B
:101EF00000F09B80009B9D4F5E429B4B06F00F02C3
:101F000003EBC203D3E9002351EC190BFEF7FCFBF2
:101F1000361182468B4600230225002E7AD1002BF3
:101F2000D3D10B9B002B00F08280914B00225046B6
:101F30005946FEF75BFE002879D0039B002B76D034
:101F4000029B002B36DD009B504659465F1E002247
:101F5000884BFEF7D9FB029E82468B460135284608
:101F6000FEF768FB52465B46FEF7CEFB824B002233
:101F7000FEF714FAD046D9468246A1F1507B002ED6
:101F800058D17E4B002240464946FEF705FA52469C
:101F90005B4680468946FEF747FE002840F0958262
:101FA00052460BF1004340464946FEF71FFE00280B
:101FB00040F089825BEC19AB119B002BC0F2488189
:101FC000009A0E2A00F34481674B03EBC203D3E966
:101FD0000089099B002B80F2D580039B002B00F326
:101FE000D18040F06F82654B002240464946FEF7A3
:101FF0008BFB52465B46FEF70DFE039E37460028DC
:1020000040F04582019D312305F8013B009B0133DF
:10201000009340E2F20705D5D7E90023FEF774FBF1
:10202000013501237610083777E7022579E7009F0D
:10203000039E94E701994C4B31440D91089903EBB1
:10204000C60353E90223002943D04D490020FEF77F
:1020500085FC52465B46FEF79FF9019D82468B4602
:1020600049464046FEF700FE0646FEF7E3FA024602
:102070000B4640464946FEF78FF9303605F8016BAE
:1020800052465B4680468946FEF7B0FD002863D184
:1020900042464B4636490020FEF77EF952465B46E3
:1020A000FEF7A4FD002840F0B5800D9B9D4281D035
:1020B000304B002250465946FEF726FB2D4B8246F8
:1020C0008B46404649460022FEF71EFB8046894665
:1020D000C6E750465946FEF717FB0D9B019D0F932F
:1020E00082468B4649464046FEF7BEFD0646FEF751
:1020F000A1FA303602460B4640464946FEF74CF9F7
:1021000005F8016B0D9B9D42804689464FF0000209
:1021100024D11B4B50465946FEF740F902460B4668
:1021200040464946FEF780FD002873D152465B4683
:1021300013490020FEF730F902460B464046494657
:10214000FEF754FD00283FF435AF0F9D6B1E0F9333
:1021500015F8013C302BF8D0009749E0054BFEF70D
:10216000D3FA80468946BDE78850010860500108CF
:102170000000F03F0000244000001C40000014401C
:102180000000E03F019D56465F4642464B463046C2
:102190003946FEF7E3FBFEF767FD8246FEF74AFA93
:1021A00042464B46FEF7B0FA02460B4630463946E9
:1021B0000AF13006FEF7F0F805F8016B019E039F67
:1021C000AE1BB74202460B4635D1FEF7E7F8424652
:1021D0004B4606460F46FEF727FDD0B942464B4612
:1021E00030463946FEF7F8FC10B11AF0010F10D155
:1021F000204618EE101A00F0FBFA002300982B700E
:102200000C9B01301860219B002B3FF4F1AC1D604A
:10221000EEE4009F2B461D4613F8012D392A06D106
:10222000019A9A42F7D10199302201370A701A783F
:1022300001321A7090E7A64B0022FEF765FA0022E1
:10224000002306460F46FEF7C7FC00289DD0CFE7C7
:10225000089A002A00F0D780069A012A00F3BA8073
:102260000E9A002A00F0B28003F23343079E049DC9
:10227000049A1A440492059A01211A4420460592B0
:1022800000F0B8FB0746002D0CDD059B002B09DD97
:10229000AB42049AA8BF2B46D21A0492059AED1AB3
:1022A000D31A0593079B1BB3089B002B00F0AF804C
:1022B000002E13DD39463246204600F05BFC18EE56
:1022C000102A01460746204600F0AAFB18EE101A15
:1022D0008046204600F08CFA08EE108A079B9A1B75
:1022E00006D018EE101A204600F044FC08EE100A42
:1022F0000121204600F07EFB0A9B002B064640F39E
:1023000088801A460146204600F034FC069B012BCB
:10231000064640F381804FF00008336906EB8303E3
:10232000186900F017FBC0F12000059B184410F05D
:102330001F0000F09280C0F12003042B40F38A803C
:10234000C0F11C00049B03440493059B0344054413
:102350000593049B002B07DD18EE101A1A46204641
:1023600000F062FC08EE100A059B002B05DD3146EB
:102370001A46204600F058FC06460B9B002B6ED0F8
:1023800018EE100A314600F0BFFC002867DA009B07
:10239000013B18EE101A00930A220023204600F099
:1023A00049FA089B08EE100A002B00F0B1810023C7
:1023B00039460A22204600F03DFA029B002B0746D0
:1023C00000F38E80069B022B51DC89E0109BC3F149
:1023D00036034BE7039B5E1E079BB342BFBF079BC1
:1023E0000796F21A0A9BB6BF9B189E1B0A93039B83
:1023F000B8BF0026002BB7BFDDE90323DDE90335B5
:102400009D1A002334E7079E049D089F3BE7079A27
:1024100067E7069B012B18DCBAF1000F15D1CBF34F
:10242000130393B92BF000431B0D1B0583B1049BD1
:1024300001330493059B013305934FF001080A9B78
:10244000002B7FF46AAF01206FE74FF00008F6E73A
:102450009846F4E73FF47DAF18461C3072E7039BC3
:10246000002B37DC069B022B34DD039B0293029B7F
:102470006BB931460522204600F0DCF901460646DC
:1024800018EE100A00F040FC00283FF7BBAD099B96
:10249000019DDB4300934FF000083146204600F0D9
:1024A000A7F9002F3FF4A4AEB8F1000F05D0B8454E
:1024B00003D04146204600F09BF93946204600F003
:1024C00097F995E600263746E1E70097374699E504
:1024D00000002440089B002B00F0CA80039B02935D
:1024E000002D05DD39462A46204600F09DFB0746B3
:1024F000B8F1000F5BD07968204600F039F9054645
:1025000028B9874B024640F2EA21FFF73BBB3A6904
:102510000232920007F10C010C3000F01BF901228D
:102520002946204600F080FB019B03F10109DDE90B
:102530000123134405930AF00103B84604930746A8
:10254000314618EE100AFFF775FA4146029000F185
:10255000300A18EE100A00F0D7FB3A4603903146D5
:10256000204600F0EDFBC26809F1FF3B054602BBC7
:10257000014618EE100A00F0C7FB02462946204625
:10258000079200F035F9DDE9063243EA0201049BC7
:102590000B434D460FD1BAF1390F2AD0039B002BC4
:1025A00002DD029B03F1310A8BF800A075E7384683
:1025B000BAE70122E2E7039B002B04DB06990B43F9
:1025C00004990B4322D1002AEEDD18EE101A0122E5
:1025D000204600F029FB314608EE100A00F094FB7B
:1025E000002803DCE0D11AF0010FDDD0BAF1390F79
:1025F000D7D139238BF800302B461D46013B15F807
:10260000012C392A71D001321A7046E7002A07DD01
:10261000BAF1390FEDD00AF101038BF800303CE735
:10262000059B09F801AC994547D018EE101A002314
:102630000A22204600F0FEF8B84508EE100A4FF0D6
:1026400000034FF00A024146204606D100F0F2F89E
:102650008046074609F1010972E700F0EBF83946B8
:10266000804600230A22204600F0E4F80746F1E7FE
:10267000039B0293019D18EE100A3146FFF7DAF929
:1026800000F1300A019B05F801ABEA1A029B934264
:1026900009DD18EE101A00230A22204600F0CAF8BD
:1026A00008EE100AE7E7029B002BC8BF1D46019BFE
:1026B000D8BF01251D444FF0000818EE101A012262
:1026C000204600F0B1FA314608EE100A00F01CFB7B
:1026D000002891DC02D11AF0010F8DD12B461D4646
:1026E00013F8012D302AFAD0D7E6019A9A4284D104
:1026F000009B0133009331231370CEE6094BFFF7A3
:1027000095BA219B002B7FF46EAA074BFFF78EBA78
:10271000029B002BAEDC069B022B3FF7A8AEA9E77D
:10272000CE4F0108084F01082C4F010800487047A0
:1027300054010024024B0146186800F05DBD00BF43
:1027400000000024024B0146186800F0E9BC00BFFD
:10275000000000240A44914200F1FF3300D1704789
:1027600010B511F8014B03F8014F9142F9D110BD9A
:1027700070B5466A04460D4676B91020FFF7DAFFB9
:102780000246606220B9184B1848662100F0B8FD77
:10279000C0E901660660C660666AF36883B1636A71
:1027A000DB6853F82500B8B9012101FA05F6721D5E
:1027B0009200204600F09DFC60B1C0E901560EE099
:1027C00021220421204600F094FC636AF060DB685B
:1027D000002BE4D1002070BD026843F825200023BF
:1027E000C0E90333F7E700BF394F0108DF4F0108A5
:1027F00070B5466A05460C4676B91020FFF79AFF79
:102800000246686220B9094B09488A2100F078FD28
:10281000C0E901660660C6603CB16B6A6268DB684D
:1028200053F82210216043F8224070BD394F01084F
:10283000DF4F01082DE9F0410D6907460C461E46A1
:1028400001F1140C0020DCF8003099B202FB0161A8
:102850001E0C0B0C02FB063389B2013001EB034165
:1028600085424CF8041B4FEA1346ECDC0EB3A36818
:10287000AB4219DC616838460131FFF779FF8046C9
:1028800028B902460C4B0D48B52100F039FD2269EC
:10289000023204F10C0192000C30FFF75BFF21467D
:1028A0003846FFF7A5FF444604EB850301355E611A
:1028B00025612046BDE8F081CE4F0108DF4F0108B9
:1028C0002DE9F8430C4615461F46092208330646F3
:1028D00093FBF2F3002101229A4209DB3046FFF715
:1028E00047FF40B90246194B1948CE2100F008FDB8
:1028F00052000131F0E7089B4361092D4FF00103BD
:10290000036116DD04F10909C8462C4418F8013B9F
:102910000146303B0A223046FFF78CFFA045F5D137
:10292000A5F108044C442D1B6319BB4204DBBDE830
:10293000F8830A340925F6E714F8013B0146303BD9
:102940000A223046FFF776FFEEE700BFCE4F0108C0
:10295000DF4F0108030C1B04D3B90004102310F04F
:102960007F4F04BF0002083310F0704F04BF000116
:10297000043310F0404F04BF80000233002805DB11
:1029800010F0804F03F1010308BF20231846704761
:102990000023E4E7036813F0070201460BD0DA07CF
:1029A00023D4980749BF5B089B0801200B605CBFDC
:1029B0000B600220704798B2A8B91B0C1020DAB245
:1029C0000AB908301B0A1A0704BF1B0904309A070A
:1029D00004BF9B080230DA0703D45B0800F1010052
:1029E00005D00B6070471046E9E7002070472020B3
:1029F0007047000010B50C460121FFF7B9FE0246F2
:102A000028B9054B05484FF4A07100F079FC01236B
:102A10004461036110BD00BFCE4F0108DF4F0108C4
:102A20002DE9F04F91460A69D9F810309A42B8BFA3
:102A30000B460C46BCBF4C4699462769D9F810A0F6
:102A4000A368616807EB0A06B34285B0B8BF0131DD
:102A5000FFF78EFE30B90246444B454840F25D1107
:102A600000F04EFC00F1140505EB86082B46002211
:102A7000434521D304F1140303EB870709F1140341
:102A800003EB8A0202923A1B153A22F00302043247
:102A900004F115018F4238BF04220192029A039378
:102AA0009A420CD8002E03DD58F8043D002B5AD072
:102AB000066105B0BDE8F08F43F8042BD8E7B3F802
:102AC00000A0BAF1000F24D004F1140EA9464FF073
:102AD000000C5EF8042BD9F800101FFA82FB89B2B3
:102AE0000AFB0B114FEA124BD9F8002061444FEA60
:102AF000124C0AFB0BC202EB114289B241EA0241BD
:102B0000774549F8041B4FEA124CE2D8019A45F880
:102B100002C0039AB2F802900433B9F1000F20D03A
:102B2000296804F1140CAE464FF0000ABCF800B05E
:102B3000BEF8022009FB0B22924489B241EA0A4105
:102B40004EF8041B5CF8042BBEF80010120C09FBB5
:102B5000021101EB1A4167454FEA114AE6D8019A82
:102B6000A95004359AE7013E9CE700BFCE4F01080B
:102B7000DF4F01082DE9F843154612F0030206461F
:102B80000F4607D0254C013A002354F82220FFF7C6
:102B900051FE0746AD103DD0746A7CB91020FFF796
:102BA000C9FD0246706228B91D4B1E484FF4D7710B
:102BB00000F0A6FBC0E901440460C460D6F824809C
:102BC000D8F808404CB940F271213046FFF712FFA7
:102BD0000023C8F80800044603604FF00009EB0723
:102BE0000AD5394622463046FFF71AFF3946804655
:102BF0003046FFF7FDFD47466D100BD0206838B911
:102C0000224621463046FFF70BFF2060C0F80090B7
:102C10000446E4E73846BDE8F88300BF5051010898
:102C2000394F0108DF4F01082DE9F0470C4649688C
:102C3000236903EB6218A368074691464FEA621ABC
:102C400008F10106B3420BDB3846FFF791FD05465C
:102C500048B902462A4B2B4840F2D91100F050FBEC
:102C600001315B00EEE7002300F1140100F11002D6
:102C70001846534537DB20692AEAEA7A04F114033F
:102C800019F01F0901EB8A0103EB80002FD0C9F175
:102C9000200E8A464FF0000C1A6802FA09F242EA46
:102CA0000C024AF8042B53F8042B984222FA0EFC2B
:102CB000F2D8031B153B23F00303043304F1150280
:102CC000904238BF042341F803C0BCF1000F01D08B
:102CD00008F10206013E38462E612146FFF788FDC5
:102CE0002846BDE8F08742F8040F0133C1E70439F4
:102CF00053F8042B41F8042F9842F9D8EAE700BFB3
:102D0000CE4F0108DF4F010830B502690C69121B74
:102D10000ED100F11403143103EB840001EB8401A4
:102D200050F8045D51F8044DA54203D005D30122AB
:102D3000104630BD8342F3D3FAE74FF0FF32F7E796
:102D40002DE9F84F0C460646114620469046FFF7FF
:102D5000DBFF051E10D129463046FFF709FD30B9CB
:102D60003A4B024640F23221394800F0C9FA0123B9
:102D7000C0E90435BDE8F88FA4BF4346A0463046FD
:102D8000D8F80410A6BF1C4600250125FFF7F0FC6B
:102D900020B92E4B02464FF41071E5E7D8F81070B9
:102DA0002669C56004F1140908F1140500F1140E38
:102DB00005EB870C09EB860608F11002F2460021AC
:102DC00059F8043B52F804BF1FFA83F811FA8BF14B
:102DD0001B0CA1EB0808C3EB1B4303EB28431FFAB2
:102DE00088F819144E4548EA03434AF8043BE7D8EB
:102DF000331B153B23F0030304331534A64238BFBD
:102E000004231D4473449E462E4666450ED30CF1A2
:102E10000302521B22F00302033DAC4538BF0022DF
:102E20001A4452F8043D7BB10761A3E756F8048BBE
:102E300011FA88F2141404EB184492B242EA0442E4
:102E40004EF8042B2114E0E7013FEAE7CE4F0108DA
:102E5000DF4F010882B08DED000B019B1249194034
:102E6000A1F15071002905DD00220B4643EC102B27
:102E700002B070474942B1F1A07F4FEA21504FF0B4
:102E800000024FF0000304DA4FF4002141FA00F38E
:102E9000ECE7A0F114011E29DABF4FF0004020FA40
:102EA00001F101210A46E1E70000F07FF8B505696C
:102EB00000F1140707EB85052E1F55F8044C20463A
:102EC000FFF748FDC0F120030A28DFF87CC00B6043
:102ED00014DCC0F10B0E24FA0EF1B74241EA0C03E8
:102EE00034BF55F8081C0021153004FA00F021FA0F
:102EF0000EF140EA010243EC102BF8BDB7423ABF95
:102F000055F8081CA5F1080600210B3817D0C0F1B0
:102F1000200C04FA00F5BE4221FA0CF445EA04053F
:102F20008CBF56F8044C002445F07F5301FA00F0A2
:102F300024FA0CF443F4401340EA0402DBE744EAC9
:102F40000C030A46D7E700BF0000F03F2DE9F74326
:102F50008946012157EC106B9046FFF709FC0446A7
:102F600030B90246254B264840F20A3100F0C8F934
:102F7000C7F30A55C7F3130335BB002E019328D0BE
:102F800068460096FFF706FD009900B3019AC0F16C
:102F9000200302FA03F30B43C24063610192019BD9
:102FA000A361002B14BF022201222261D5B1A5F238
:102FB00033450544C9F80050C0F13500C8F8000099
:102FC000204603B0BDE8F08343F48013D5E7616188
:102FD000E5E701A8FFF7DEFC019B636101222261A6
:102FE0002030E3E704EB8203A0F23240C9F800008E
:102FF0001869FFF7AFFCC0EB4210DFE7CE4F0108C6
:10300000DF4F01082DE9F74F884669468146FFF7F3
:103010004DFF01A9404655EC104BFFF747FFD9F88B
:103020001030D8F81020A3EB020CDDE900329B1A17
:1030300003EB4C1351EC100B002BD6BF0A462A466B
:10304000C3EB03338B462F46D4BF02EB035B02EB8B
:103050000357204610EE102A5B463946FDF77EFCEA
:1030600041EC100B03B0BDE8F08F013970B5491188
:103070001469013102F1140300EB810103EB8404B4
:10308000051FA3420CD3A31A113B23F003031132F3
:10309000A24288BF002318440023884205D370BD94
:1030A00053F8046B45F8046FEBE740F8043BF4E792
:1030B00000F1140200694B11984210B511DB0ADDD2
:1030C00011F01F0107D052F8234024FA01F000FA52
:1030D00001F18C420BD102EB8303934203D8002011
:1030E00010BD0346F7E753F8041D0029F5D0012071
:1030F000F6E737B5A1FB02244CB91146019200F066
:103100007BF8019A054630B9284603B030BD0C2241
:1031100002600025F8E72146FEF71AF8F4E7000000
:1031200037B5002944D051F8043C0190002BA1F19F
:103130000404B8BFE41800F025F91E4A019813688A
:1031400033B96360146003B0BDE8304000F020B9CB
:10315000A34208D9256861198B4201BF19685B68D1
:1031600049192160EDE71A465B680BB1A342FAD911
:1031700011685518A5420BD1246821445418A34264
:103180001160E0D11C685B68536021441160DAE78C
:1031900002D90C230360D6E7256861198B4204BF6E
:1031A00019685B68636004BF491921605460CAE70D
:1031B00003B030BD6407002470B50E4E0C46316874
:1031C000054611B900F08CF830602146284600F021
:1031D00087F8431C0AD0C41C24F00304A04207D083
:1031E000211A284600F07CF8013001D14FF0FF345D
:1031F000204670BD680700242DE9F041CD1C25F064
:10320000030508350C2D38BF0C25002D074601DBC2
:10321000A94205D90C233B6000263046BDE8F08169
:103220002E4E00F0AFF833681C4634BB29463846B2
:10323000FFF7C2FF431C04464DD134682646002EDA
:1032400040D123683146384604EB030800F048F8C3
:1032500080453AD1216803356D1A25F003050835FC
:103260000C2D38BF0C2529463846FFF7A5FF013045
:103270002BD023682B4423600EE02268521B1ED4FF
:103280000B2A16D96119A342256018BF59606368DB
:1032900008BF316062514B60384604F10B0600F004
:1032A00077F826F00706231DF21AB6D09B1BA35011
:1032B000B3E76268A3420CBF32605A60ECE7234672
:1032C0006468B2E734467668B9E70C233B60384659
:1032D00000F05EF8A1E72560DEE700BF6407002488
:1032E00038B5064D0023044608462B6000F020FE4A
:1032F000431C02D12B6803B1236038BD6C07002446
:103300001FB514461A46094B1B680546D8684CB1D0
:10331000074B0091CDE9013406492B4600F00EF829
:1033200000F064FA044B1C46F3E700BF00000024E1
:103330005C51010869510108975101080EB403B5A9
:10334000014603AB054853F8042B0068019300F0D5
:103350004FF802B05DF804EB03B0704700000024A2
:1033600082B001B901A942B14BB113780B60127858
:10337000101E18BF012002B070471046FBE76FF027
:103380000100F8E7014800F0F1BB00BF700700241E
:10339000014800F0ECBB00BF700700249368013BBC
:1033A000002B10B4936008DA9469A34201DB0A2968
:1033B00003D15DF8044B00F04BB91368581C106042
:1033C000197008465DF8044B7047F8B506460F467D
:1033D0001446D518AC4201D1002007E014F8011BB7
:1033E0003A463046FFF7DAFF431CF3D1F8BD000040
:1033F0002DE9F04F0D469DB014469846064618B18B
:1034000083690BB900F014FB894B9D421BD1756891
:103410006B6ED90705D4AB899A0502D4A86D00F06C
:10342000A5FBAB891B0701D52B69EBB929463046B3
:1034300000F06EF9C0B16B6EDC070ED54FF0FF30B7
:103440001DB0BDE8F08F7B4B9D4201D1B568DFE731
:10345000794B9D4208BFF568DAE7AB899805EDD452
:10346000A86D00F084FBE9E70023099320238DF881
:103470002930CDF80C803023DFF8C0818DF82A3058
:103480004FF0010923469A4613F8012B0AB1252A69
:10349000F9D1BAEB040B0BD05B46224629463046E5
:1034A000FFF793FF013000F0AA80099A5A4409926D
:1034B0009AF80030002B00F0A28000234FF0FF327A
:1034C000CDE905230AF1010A049307938DF85330DF
:1034D0001A935446052214F8011B5848FCF708FFBC
:1034E000049AD8B9D10644BF20238DF8533013076E
:1034F00044BF2B238DF853309AF800302A2B15D077
:10350000079A544600204FF00A0C214611F8013B5F
:10351000303B092B4ED9B0B1079214E0A0EB080361
:1035200009FA03F313430493A246D2E7039B191D40
:103530001B680391002BBBBF5B4242F00202079362
:103540000793B8BF049223782E2B0CD163782A2BD3
:1035500035D1039B1A1D1B680392002BB8BF4FF097
:10356000FF3302340593DFF8E4A0217803225046AC
:10357000FCF7BEFE40B14023A0EB0A0003FA00F0C6
:10358000049B03430134049314F8011B2C488DF869
:1035900028100622FCF7ACFE00283FD0294B1BBBAD
:1035A000039B073323F0070308330393099B3B4432
:1035B000099367E70CFB02320C460120A5E70023C4
:1035C0000134059319464FF00A0C204610F8012BE0
:1035D000303A092A03D9002BC5D00591C3E70CFB6B
:1035E000012104460123F0E703AB00932A46164B62
:1035F00004A93046FDF754FE0746781CD6D16B6E01
:10360000D90705D4AB899A0502D4A86D00F0AFFAAA
:10361000AB895B063FF512AF099811E703AB009346
:103620002A46094B04A93046FEF7DEF8E4E700BF5E
:10363000D4520108F4520108B4520108A251010801
:10364000AC510108A1120008CB330008A8510108B1
:10365000F8B50E461446054618B183690BB900F05B
:10366000E7F9214B9C422BD16C68A369A360A38925
:103670001A072FD523696BB323692068C01A6369C1
:10368000F6B28342374604DC2146284600F03CF976
:1036900030BBA368013BA36023685A1C22601E70E4
:1036A00063690130834204D0A389DB0706D50A2E63
:1036B00004D12146284600F027F988B93846F8BDDC
:1036C0000A4B9C4201D1AC68CFE7094B9C4208BF32
:1036D000EC68CAE72146284600F01AF80028CBD04B
:1036E0004FF0FF37EAE700BFD4520108F452010857
:1036F000B452010849B1FF2A85BF8A2303600A70CA
:103700004FF0FF3098BF0120704708467047000017
:10371000324B70B51D6806460C4625B1AB6913B92E
:10372000284600F085F92E4B9C420FD16C68A38986
:10373000B4F90C2019072CD4DD0611D40923336009
:1037400042F04003A3814FF0FF303EE0254B9C4206
:1037500001D1AC68EBE7244B9C4208BFEC68E6E77C
:10376000580712D5616B41B104F14403994202D06C
:103770003046FFF7D5FC00236363A38923F02403BD
:10378000A3810023636023692360A38943F00803B6
:10379000A38123694BB9A38903F42073B3F5007F98
:1037A00003D02146304600F009FAA089B4F90C2074
:1037B00010F001030AD00023A36063695B42A36198
:1037C000236943B910F08000BAD170BD810758BF9A
:1037D0006369A360F4E70020F7E700BF000000245E
:1037E000D4520108F4520108B452010808B5062069
:1037F00000F096FA012000F0B1FB00008A892DE963
:10380000F041054610070C4658D44B68002B05DCE8
:103810000B6C002B02DC0020BDE8F081E66A002E74
:10382000F9D0002312F480522F682B6032D0606DE3
:10383000A3895A0705D56368C01A636B0BB1236C63
:10384000C01A00230246E66A216A2846B047431C94
:10385000A38906D129681D292CD82A4ACA40D6072F
:1038600028D500226260D9042269226004D5421C56
:1038700001D12B6803B96065616B2F600029CAD044
:1038800004F14403994202D02846FFF749FC002086
:103890006063C1E7216A01232846B047411CC7D1B4
:1038A0002B68002BC4D01D2B01D0162B01D12F600B
:1038B000B1E7A38943F04003A381ADE70F69002F6F
:1038C000A9D093070E6808BF4B690F6018BF00238B
:1038D000A6EB07088B60B8F1000F9CDD216AA66A91
:1038E00043463A462846B047002806DCA38943F001
:1038F0004003A3814FF0FF308EE70744A8EB000898
:10390000E9E700BF0100402038B50B6905460C46C9
:1039100013B90025284638BD18B183690BB900F0EA
:1039200087F8144B9C421BD16C68B4F90C30002B07
:10393000EFD0626ED00704D4990502D4A06D00F0D8
:1039400015F928462146FFF759FF636EDA07054649
:10395000E0D4A3899B05DDD4A06D00F008F9D9E778
:10396000054B9C4201D1AC68DFE7044B9C4208BF89
:10397000EC68DAE7D4520108F4520108B4520108A5
:10398000002310B50446C0E90033C0E90433836066
:1039900081814366C2818361194608225C30FDF74C
:1039A000D7FB054B6362054BA362054BE362054BF6
:1039B0002462236310BD00BF593D00087B3D000811
:1039C000B33D0008D73D0008014900F0AFB800BF83
:1039D0000939000870B568224D1E55430E4605F1A1
:1039E0007401FFF709FC044640B10021C0E900164C
:1039F0000C30A06005F16802FDF7AAFB204670BDFF
:103A0000014800F0B3B800BF71070024014800F07E
:103A1000AEB800BF71070024014800F0A7B800BF8E
:103A200072070024014800F0A2B800BF720700240A
:103A300010B50446FFF7F0FFA3691BB1BDE81040C5
:103A4000FFF7F0BFC4E912332365134B134A1B6819
:103A5000A262A34204BF0123A361204600F020F824
:103A60006060204600F01CF8A060204600F018F8C6
:103A70000022E06004216068FFF782FFA068012255
:103A80000921FFF77DFFE06802221221FFF778FF8E
:103A90000123A361D2E700BFF44E0108C939000831
:103AA000F8B50746FFF7ACFF1E4B1E68B36913B9A4
:103AB0003046FFF7BDFF4836D6E90134013B03D558
:103AC00033680BB33668F7E7B4F90C50D5B9164B29
:103AD000E36004F15800656600F047F8FFF796FFD1
:103AE000C4E90155C4E904552560A56108222946A9
:103AF00004F15C00FDF72CFBC4E90D55C4E9125537
:103B00002046F8BD6834D9E704213846FFF762FF44
:103B1000044630600028D5D1FFF778FF0C233B60C6
:103B2000EEE700BFF44E01080100FFFF2DE9F84366
:103B30000646884600F148040027D4E90195B9F10A
:103B4000010905D52468002CF7D13846BDE8F88373
:103B5000AB89012B07D9B5F90E30013303D02946C3
:103B60003046C04707436835E9E7704770477047FC
:103B700070B50E46B1F90E10002996B014461D46D8
:103B800008DAB6F90C3000222A601A0610D44FF475
:103B900080630EE06A4600F045F90028F1DB019AE7
:103BA00002F47042A2F500535A425A412A60EEE7ED
:103BB00040230020236016B070BD00008B8973B5D0
:103BC0009D0706460C4607D504F147032360236191
:103BD0000123636102B070BD01AB6A46FFF7C8FF05
:103BE000009905463046FFF707FB48B9B4F90C3099
:103BF0009A05EFD423F0030343F00203A381E3E724
:103C00000D4BB362A389206043F08003A381009B26
:103C10006361019B20615BB1B4F90E10304600F086
:103C200013F928B1A38923F0030343F00103A3810F
:103C3000A0890543A581CDE7C9390008884210B5A0
:103C400001EB020402D98442234607D8431EA14255
:103C500008D011F8012B03F8012FF8E702440146C0
:103C60008A4200D110BD13F8014D02F8014DF7E76B
:103C70002DE9F041804614460E4621B9BDE8F041D9
:103C80001146FFF7B9BA2AB9FFF74AFA254628467E
:103C9000BDE8F08100F0FAF88442074602D8B4EBA0
:103CA000500F12D821464046FFF7A6FA05460028D5
:103CB000EDD0BC422246314628BF3A46FEF74AFDC7
:103CC00031464046FFF72CFAE1E73546DFE71F298A
:103CD00038B504460D4604D9162303604FF0FF3073
:103CE00038BD426C12B152F821304BB9204600F079
:103CF00031F82A4601462046BDE8384000F018B8A1
:103D0000012B0AD0591C03D1162303600120E7E7D9
:103D1000002442F82540284698470020E0E70000AC
:103D2000024B01461868FFF7D2BF00BF0000002415
:103D300038B5074D00230446084611462B6000F0B5
:103D4000DFF8431C02D12B6803B1236038BD00BFEC
:103D50006C07002400F0C4B810B50C46B1F90E1081
:103D600000F09CF80028ABBF636DA3891B1823F4F7
:103D70008053ACBF6365A38110BD2DE9F0411F46A0
:103D80008B89DB0505460C46164605D5B1F90E10A4
:103D90000223002200F068F8A389B4F90E1023F47E
:103DA0008053A38132463B462846BDE8F04100F0EF
:103DB00017B810B50C46B1F90E1000F055F8431CB9
:103DC000A38915BF606523F4805343F48053A38116
:103DD00018BFA38110BDB1F90E1000F013B8000098
:103DE00038B5074D04460846114600222A601A4697
:103DF00000F0ACF8431C02D12B6803B1236038BD3E
:103E00006C07002438B5064D0023044608462B6095
:103E100000F056F8431C02D12B6803B1236038BD73
:103E20006C07002438B5074D0023044608461146A8
:103E30002B6000F04DF8431C02D12B6803B12360C6
:103E400038BD00BF6C07002438B5064D002304467A
:103E500008462B6000F04CF8431C02D12B6803B1DC
:103E6000236038BD6C07002438B5074D044608466A
:103E7000114600222A601A4600F04AF8431C02D17B
:103E80002B6803B1236038BD6C07002451F8043C53
:103E9000181F002BBCBF0B58C018704738B5074D12
:103EA00004460846114600222A601A4600F038F8F7
:103EB000431C02D12B6803B1236038BD6C0700247A
:103EC000024B58221A604FF0FF3070476C070024F5
:103ED000024B58221A604FF0FF3070476C070024E5
:103EE000024B58221A604FF0FF3070476C070024D5
:103EF000024B58221A600020704700BF6C07002454
:103F0000024B58221A604FF0FF3070476C070024B4
:103F1000024B58221A604FF0FF3070476C070024A4
:103F2000024B58221A604FF0FF3070476C07002494
:103F3000044A05491368002B08BF0B46184410605B
:103F40001846704774070024E0160024024B5822DC
:103F50001A604FF0FF3070476C070024FEE700BF87
:103F600000B58BB000230793089309930093019346
:103F7000029303930493059306936D486D4A026080
:103F80004FF48022426083600122C26004210161FB
:103F9000037542750B2282610377436283620322B9
:103FA000C2624FF480520263436380F8383001F0FC
:103FB00081FD002840F0928040F2FF7200215C48B1
:103FC00001F0AAFE002840F08C800023079307A987
:103FD000574801F0F5FE002840F08680564B0093CC
:103FE000062301930423029340F2FF720392049389
:103FF000002305938DF8193069464D4801F032F8D9
:10400000002874D14D4B00930C2301936946484816
:1040100001F028F800286DD1494B00931223019339
:104020006946434801F01EF8002866D1454B0093CD
:104030001823019369463E4801F014F800285FD127
:10404000414B00934FF4807301936946384801F067
:1040500009F8002857D13D4B00934FF48373019327
:104060006946334800F0FEFF00284FD1384B0093DB
:104070004FF48673019369462D4800F0F3FF002842
:1040800047D1344B00934FF4897301936946284814
:1040900000F0E8FF00283FD12F4B00934FF48C73C2
:1040A00001936946224800F0DDFF002837D12B4BF1
:1040B00000934FF40073019369461D4800F0D2FF4E
:1040C00080BB274B009340F20623019369461848B2
:1040D00000F0C8FF48BB0BB05DF804FB09F010FD11
:1040E0006AE709F00DFD70E709F00AFD76E709F0CF
:1040F00007FD87E709F004FD8EE709F001FD95E76C
:1041000009F0FEFC9CE709F0FBFCA4E709F0F8FCD1
:10411000ACE709F0F5FCB4E709F0F2FCBCE709F004
:10412000EFFCC4E709F0ECFCCBE709F0E9FCD2E7CF
:1041300078070024002002400800900C1000C010F6
:104140002000F014000180210002B0250040C03A98
:104150000080F03E00002143000052470000B84FAD
:104160004000201970B5BCB0044600213791389149
:1041700039913A913B91C02206A8FCF7E9FF2268E9
:10418000504B9A4201D03CB070BD4FF40022002346
:10419000CDE9062304230893092209920A930223F6
:1041A0000B930C93C0230D9320230E934FF4406385
:1041B0000F9306A803F048FA00287CD1424BD3F8AD
:1041C000D82042F02002C3F8D820D3F8D82002F03B
:1041D00020020192019AD3F8E02042F00102C3F8D4
:1041E000E020D3F8E02002F001020292029AD3F814
:1041F000E02042F00402C3F8E020D3F8E02002F00F
:1042000004020392039AD3F8E02042F00202C3F8BA
:10421000E020D3F8E02002F002020492049AD3F8DE
:10422000E02042F02002C3F8E020D3F8E03003F0B1
:1042300020030593059BFF2337930326389600251B
:10424000399537A9214804F0E3FF30233793389696
:10425000399537A91E4804F0DBFF37963896399513
:1042600037A91C4804F0D4FF4FF4C0533793389655
:10427000399537A9184804F0CBFF1848184B03604C
:10428000092343608560C5604FF4806303614FF488
:10429000006343614FF4005383614FF48073C36143
:1042A0004FF400330362456205F0FCFA30B90B4B62
:1042B000E3649C6367E709F023FC7FE709F020FCD7
:1042C000F5E700BF002002400044025800000258F9
:1042D000000802580004025800140258DC070024A9
:1042E0001000024038B51648164B03600023836067
:1042F000C360037443748374192545610124846188
:104300000D21C1610222026245628462C1620263C0
:1043100043638263C36303210164042242648164B2
:10432000C2640165426583651221C1650166436609
:10433000826606F00BFE00B938BD09F0E1FBFBE731
:104340005808002400A4004010B5BAB0044600216B
:1043500035913691379138913991C02204A8FCF7F4
:10436000F7FE23684F4A934204D04F4A934240D00D
:104370003AB010BD4FF400420023CDE904234FF0C2
:104380008053209304A803F05FF908BB474A1368E1
:1043900001331360012B1ED0454BD3F8E02042F0CF
:1043A0000102C3F8E020D3F8E03003F001030193E9
:1043B000019B4FF4C0533593022336930023379368
:1043C00038930923399335A93A4804F021FFCFE700
:1043D00009F096FBDAE7364BD3F8EC2042F4807212
:1043E000C3F8EC20D3F8EC3003F480730093009B07
:1043F000D2E74FF400420023CDE904234FF080536D
:10440000209304A803F020F900283AD1274A136822
:1044100001331360012B37D0254BD3F8E02042F055
:104420000202C3F8E020D3F8E03003F00203039364
:10443000039B4FF440533593022336930024379463
:10444000032338930923399335A91B4804F0E0FE70
:1044500022462146142006F0F3FB142006F026FC29
:1044600022462146162006F0EBFB162006F01EFC25
:10447000224621463F2006F0E3FB3F2006F016FCD3
:1044800076E709F03DFBC1E7094BD3F8EC2042F495
:104490008072C3F8EC20D3F8EC3003F480730293FD
:1044A000029BB9E700A0004000A40040540800248B
:1044B00000440258000002580004025870B58EB043
:1044C000002409940A940B940C940D94534BD3F844
:1044D000E02042F00402C3F8E020D3F8E02002F02C
:1044E00004020192019AD3F8E02042F08002C3F85E
:1044F000E020D3F8E02002F080020292029AD3F882
:10450000E02042F00102C3F8E020D3F8E02002F0FE
:1045100001020392039AD3F8E02042F00202C3F8AA
:10452000E020D3F8E02002F002020492049AD3F8CB
:10453000E02042F02002C3F8E020D3F8E02002F0AF
:1045400020020592059AD3F8E02042F01002C3F849
:10455000E020D3F8E02002F010020692069AD3F889
:10456000E02042F00802C3F8E020D3F8E02002F097
:1045700008020792079AD3F8E02042F04002C3F8FD
:10458000E020D3F8E03003F040030893089B244D6B
:1045900022464FF47C41284604F051FF4FF440631B
:1045A000099312230A930B940C9404230D9309A9E5
:1045B0001C4804F02DFE4FF4F843099301260A9697
:1045C0000B940C9409A9284604F022FE4FF40043F2
:1045D00009930A9602230B930C9409A9284604F028
:1045E00017FEFF2309930A940B9609A9284604F0A5
:1045F0000FFE802309934FF488130A930B9409A9A3
:10460000094804F005FE22462146172006F018FB53
:10461000172006F04BFB0EB070BD00BF00440258DF
:10462000000C0258000402580010025808B5124845
:10463000124B0360124B4360002383600122C2606F
:10464000036143618361C361036201F0B9FE50B944
:104650000021094802F0C0F840B90021064802F0E4
:10466000E9F830B908BD09F04BFAF1E709F048FA6A
:10467000F3E709F045FAF5E7F80800240058004090
:10468000B634900010B5B8B004460021339134918F
:10469000359136913791C02202A8FCF759FD226866
:1046A0001B4B9A4201D038B010BD08220023CDE93F
:1046B000022302A802F0C8FF38BB164CD4F8E03041
:1046C00043F00203C4F8E030D4F8E03003F0020312
:1046D0000093009B4FF440633393122334930023E1
:1046E000359336930423379333A90B4804F090FD98
:1046F000D4F8E83043F48003C4F8E830D4F8E83064
:1047000003F480030193019BCDE709F0F9F9D4E7A5
:1047100000580040004402580004025800B595B00B
:10472000242200210BA8FCF713FD00230893099312
:104730000A930193029303930493059306930793BB
:1047400020484FF080420260436083604FF4805203
:10475000C2600361836108F065F838BB03230B93E3
:1047600000230C9301220D920E930F93109311923C
:10477000129313930BA9134808F0B4F8C8B9002397
:1047800008930A9308A90F4808F0AAFFA0B960236C
:10479000019300230293039305930C2201A9094876
:1047A00008F081F958B915B05DF804FB09F0A8F9D3
:1047B000D4E709F0A5F9E2E709F0A2F9E7E709F083
:1047C0009FF9F0E7E409002408B50A480A4B0360A2
:1047D00009234360002383604FF47A72C26003614F
:1047E0004361836107F0BEFF00B908BD09F088F995
:1047F000FBE700BF980900240048014000B585B0E0
:1048000000230193029303930F48104A02604CF275
:1048100050324260836049F64042C260836107F0D3
:10482000A1FF50B900230193039301A9064808F0A2
:1048300057FF28B905B05DF804FB09F061F9F1E70D
:1048400009F05EF9F6E700BFC80A00240014004032
:1048500000B591B000230C930D930E930F93079323
:10486000089309930A930B93039304930593069378
:104870000093019302932E482E4A026043608360A6
:104880004FF0FF32C2600361836107F06BFF0028C5
:1048900039D14FF480530C930CA9254808F05AFAEB
:1048A000002833D1224807F0EDFF002831D104233E
:1048B000079350230893002309930A930B9307A9A6
:1048C0001B4808F08BFB38BB0022039201230493A2
:1048D0000592069203A9164808F0CCF9F8B902230C
:1048E00003930493042203A9114808F0C3F9C8B93B
:1048F00000230093029369460D4808F0F1FEA0B929
:1049000011B05DF804FB09F0FBF8C2E709F0F8F814
:10491000C8E709F0F5F8CAE709F0F2F8D4E709F0BA
:10492000EFF8DCE709F0ECF8E2E709F0E9F8E7E78F
:104930007C0A0024000C004000B58BB000230593D6
:10494000069307930893099303683E4A93420BD05A
:104950003D4A93421ED03D4A934231D03C4A934255
:1049600044D00BB05DF804FB3A4BD3F8F02042F092
:104970000102C3F8F020D3F8F03003F001030093F4
:10498000009B002211461B2006F05AF91B2006F05E
:104990008DF9E6E72F4BD3F8F02042F48022C3F8DC
:1049A000F020D3F8F03003F480230193019B002220
:1049B0001146762006F044F9762006F077F9D0E724
:1049C000244BD3F8E82042F02002C3F8E820D3F8C3
:1049D000E83003F020030293029B002211463720A7
:1049E00006F02EF9372006F061F9BAE7194BD3F833
:1049F000E82042F00802C3F8E820D3F8E82002F0EB
:104A000008020392039AD3F8E02042F00102C3F8AF
:104A1000E020D3F8E03003F001030493049B01236A
:104A2000059302230693099305A90B4804F0F0FBB4
:104A300000221146322006F003F9322006F036F942
:104A40008FE700BF00000140004801400014004013
:104A5000000C0040004402580000025830B589B0F4
:104A60000023039304930593069307930368B3F11C
:104A7000804F01D009B030BD214BD3F8E82042F07F
:104A80000102C3F8E820D3F8E82002F00102009206
:104A9000009AD3F8E02042F00102C3F8E020D3F8F6
:104AA000E02002F001020192019AD3F8E02042F0E6
:104AB0000202C3F8E020D3F8E03003F002030293CF
:104AC000029B4FF4004303930224049401250795AD
:104AD00003A90C4804F09CFB0823039304940024CE
:104AE00005940694079503A9074804F091FB224614
:104AF00021461C2006F0A4F81C2006F0D7F8B9E7E0
:104B000000440258000002580004025802680F4B8B
:104B10009A4200D0704700B583B00D4BD3F8E8201F
:104B200042F00202C3F8E820D3F8E83003F00203B1
:104B30000193019B002211461D2006F081F81D20E3
:104B400006F0B4F803B05DF804FB00BF00040040B9
:104B50000044025800B589B00023039304930593E1
:104B60000693079303681C4A934205D01B4A93425D
:104B70001BD009B05DF804FB194BD3F8E02042F0DC
:104B80001002C3F8E020D3F8E03003F010030193E3
:104B9000019B4FF47C530393022304930123079357
:104BA00003A9104804F034FBE3E70D4BD3F8E020F1
:104BB00042F00202C3F8E020D3F8E03003F0020331
:104BC0000293029B1023039302230493079303A9E8
:104BD000054804F01DFBCCE7000001400004004044
:104BE00000440258001002580004025810B59AB050
:104BF00000241694179418941994139414941594EB
:104C00000C940D940E940F941094119412942C22E1
:104C1000214601A8FCF79CFA3B483C4B0360032368
:104C200043602023836040F6C413C3600461446181
:104C3000846107F097FD00284ED14FF480531693FE
:104C400016A9314808F086F8002848D12E4807F008
:104C5000E9FD002846D1002313931493159313A95B
:104C6000294808F03DFD00283FD160230C93002225
:104C70000D920E920F921092119212920CA922484C
:104C800007F011FF002833D104220CA91E4807F0B9
:104C90000AFF00282FD108220CA91B4807F003FFA8
:104CA00060BB0023019302930393B92204920593FE
:104CB0004FF400520692079308934FF00072099246
:104CC0000A930B9301A9104808F05AFDC8B90E4881
:104CD000FFF740FF1AB010BD08F012FFADE708F073
:104CE0000FFFB3E708F00CFFB5E708F009FFBCE7DA
:104CF00008F006FFC8E708F003FFCCE708F000FF64
:104D0000CFE708F0FDFEE2E74C0900240000014077
:104D100000B58BB000230793089309930093019388
:104D2000029303930493059306931748174A02606E
:104D3000436083604FF6FF72C2600361836107F0D6
:104D400041FDB8B900230793099307A90E4808F05D
:104D5000C7FC90B900220092019202920492694627
:104D6000094807F063FE58B90748FFF7F3FE0BB098
:104D70005DF804FB08F0C4FEE4E708F0C1FEE9E7D3
:104D800008F0BEFEF0E700BF300A00240004004037
:104D900000B583B00B4BD3F8D82042F00102C3F822
:104DA000D820D3F8D83003F001030193019B0022EF
:104DB00011460B2005F044FF0B2005F077FF03B0F0
:104DC0005DF804FB00440258FEE7000000B585B022
:104DD0000020019002900390064B0293064B039330
:104DE0000AF020FA03200AF0E9FA4FF4FA7001F011
:104DF00001F9F7E7BDF3000825F20008FEE7FEE73A
:104E0000FEE770477047704708B501F0E1F808BD4C
:104E100008B5024805F03CFB08BD00BFDC070024D4
:104E200008B5024806F008FC08BD00BF5808002479
:104E300008B5024806F000FC08BD00BF5808002471
:104E400008B5024807F03FFB08BD00BF4C0900242D
:104E500008B5024807F037FB08BD00BFE40900248D
:104E600008B5024807F02FFB08BD00BF300A002438
:104E700008B5024806F0BAFD08BD00BF140B0024B7
:104E800008B5024807F01FFB08BD00BF98090024C1
:104E900008B5024807F017FB08BD00BFC80A002488
:104EA00008B5802004F0DAFA08BD000008B5024811
:104EB00007F009FB08BD00BF7C0A002482B0074B45
:104EC000D3F8F42042F00202C3F8F420D3F8F4300F
:104ED00003F002030193019B02B0704700440258A3
:104EE000294AD2F8883043F47003C2F88830274B3F
:104EF0001B6803F00F03062B06D8244A136823F01F
:104F00000F0343F007031360214B1A6842F00102BC
:104F10001A6000221A6119681E4A0A401A601B4B67
:104F20001B6813F0080F06D0184A136823F00F030C
:104F300043F007031360164B00229A61DA611A628C
:104F4000154999621549D962154919635A639963DC
:104F5000DA6319645A64196821F4802119601A66A9
:104F6000104B1A68104B1340B3F1005F03D20F4B84
:104F70000122C3F808210E4B43F2D2021A60024B01
:104F80004FF000629A60704700ED00E00020005290
:104F9000004402587FEDF6EA000202020000FF0121
:104FA000800201010010005C0000FFFF0080005142
:104FB0000040005208B5806B08F018FE08BD70472D
:104FC00008B50346806B426D12F0500F30D1436D2F
:104FD00043F40073436503681A6812F0080F14D095
:104FE000DA6812F4406F20D1DB6813F4005F1CD143
:104FF000436D23F480734365436D13F4805F14D1D4
:10500000436D43F0010343650FE0DB6813F0030FCA
:105010000BD1436D23F480734365436D13F4805FBC
:1050200003D1436D43F00103436508F0F5FD08BD6E
:10503000426D12F0100F04D1C26CD26C184690472A
:10504000F5E7FFF7BCFFF2E708B5806B436D43F06F
:1050500040034365836D43F004038365FFF7AFFFAF
:1050600008BD0000F0B583B00022019290F85020F6
:10507000012A00F055820346012280F85020006882
:10508000826812F0040F09D05A6D42F020025A656E
:105090000120002283F8502003B0F0BD0A68C2F35B
:1050A0001304002C4ED1C2F3846201249440C269DF
:1050B0002243C2611D684C683035220A920002F01A
:1050C0000C02A85804F01F0E1F2404FA0EF420EA64
:1050D00004000C68C4F3846C0CFA0EFC40EA0C006B
:1050E000A8501C68A26812F0040200D00122A06837
:1050F00010F0080000D0012002432FD01868826809
:1051000012F0010F40F008820A68CD68D0F8C04064
:10511000C2F3130624EA060405F0180CB24D25FA72
:105120000CF52A40C2F313022243C0F8C020C8681D
:10513000AE4A904200F0B0800A68002AC0F26B814B
:105140000020A6E792FAA2F232B1B2FA82F202F09D
:105150001F0201249440AAE72022F8E70F688D6817
:105160001434780E800000F004002658C7F3045E63
:105170004FF0070C0CFA0EFC26EA0C0C05FA0EF5A3
:105180004CEA050525509A48006800F07040B0F1DF
:10519000805F0BD01C68E06810F0100F39D14869AF
:1051A000E468C4F382046400A04006E048691C6817
:1051B000E468C4F382046400A0400D69042D36D075
:1051C0001F680E68603757F8254004F0004406F069
:1051D000F8463043204347F8250018680E694C7E96
:1051E000012C1ED01546603050F8264024F00044B3
:1051F0002C4340F826401D680C69087E012813D016
:10520000286920F4F04004F01F04A24002432A6100
:1052100074E74869E468A40804F004046400A0404A
:10522000CBE74FF00045DEE74FF40062E8E718688F
:10523000026E02F0F8420C68B2EB846F1DD0186861
:10524000426E02F0F8420C68B2EB846F1AD0186814
:10525000826E02F0F8420C68B2EB846F17D01868C7
:10526000C26E02F0F8420C68B2EB846F7FF446AF76
:10527000C26E22F00042C26640E7026E22F0004297
:105280000266DCE7426E22F000424266DFE7826E91
:1052900022F000428266E2E71C680A68C2F3130546
:1052A000002D34D1900E013000F01F0009288CBF72
:1052B00000200120002861D0002D37D1900E013050
:1052C000800600F0F840002D3CD1960E013606F025
:1052D0001F070126BE403043002D41D1920E0132FE
:1052E00002F01F0202EB42021205024388681434E6
:1052F000550EAD0005F004056659C2F304520727A8
:10530000974026EA070690403043605114E792FA2E
:10531000A2F048B1B0FA80F0013000F01F00092877
:105320008CBF00200120C5E72020F5E792FAA2F00B
:1053300030B1B0FA80F00130800600F0F840C2E7EA
:105340002020F8E792FAA2F646B1B6FA86F60136C0
:1053500006F01F06012707FA06F6BCE72026F6E747
:1053600092FAA2F242B1B2FA82F2013202F01F02C4
:1053700002EB42021205B8E72022F6E7CDB9900E03
:105380000130800600F0F840FDB9960E013606F0B7
:105390001F070126BE40304365BB920E013202F06A
:1053A0001F0202EB42021E3A120542F00072024353
:1053B0009CE792FAA2F030B1B0FA80F0013080069A
:1053C00000F0F840E0E72020F8E792FAA2F646B1B4
:1053D000B6FA86F6013606F01F06012707FA06F62A
:1053E000D9E72026F6E700BFFFFF0F000000FF47C8
:1053F0000010005C92FAA2F25AB1B2FA82F20132C3
:1054000002F01F0202EB42021E3A120542F0007245
:10541000CDE72022F3E719684248434CA14218BF68
:1054200081420CBF0120002021D1404EB56805F01B
:10543000E077F0B13B48806810F0010000D0012017
:10544000394CA46814F0010400D0012420430CBF9F
:1054500001200020002859D03548824212D035481A
:10546000824231D0344882423FD0002011E6334E90
:10547000DCE73348806810F0010000D0012080F0A4
:105480000100E7E715F4000FE9D12D4A914201D060
:105490000020FEE547F40002B16821F0E0710A4304
:1054A000B260284A126892092749A1FB02129209A8
:1054B00001325200019202E0019A013A0192019AEE
:1054C000002AF9D10020E4E515F0807FCAD11C4AFA
:1054D000914201D00020DCE547F08072B16821F0F4
:1054E000E0710A43B2600020D3E515F4800F15D1B6
:1054F000134A914201D00020CBE547F48002B16805
:1055000021F0E0710A43B2600020C2E55A6D42F01A
:1055100020025A650120BCE50020BAE50020B8E56C
:105520000220B9E500200240002102400023024091
:10553000000084CB000052C70000B8CF00630258BF
:1055400000600258D0010024632D3E0570B504466A
:105550000068836813F0040300D00123826812F00E
:10556000080200D00122134367D0C36813F0007F04
:1055700004D0A28A40F201139A424AD002290ED0E6
:1055800023689A6812F0040F09D09A6812F0020F8B
:1055900005D198682A4A024042F010029A60012917
:1055A0000ED023689A6812F0080F09D09A6812F09A
:1055B000020F05D19868224A024042F020029A6008
:1055C000022934D0032934D10C2500F00DFD064604
:1055D00023689B682B422ED000F006FD831B052B11
:1055E000F6D923689B682B42F2D0636D43F0100319
:1055F0006365A36D43F00103A36501201EE0636DA5
:1056000043F010036365A36D43F00103A36501201C
:1056100014E00023026812F0400F04D1094A9342BB
:10562000EDD80133F6E7402303600121A8E7082500
:10563000CBE70425C9E7002000E0002070BD00BFD3
:10564000C0FFFF7FFFDB0C0038B503689A6812F0DB
:10565000010F56D1044699682B4A114209D0436D77
:1056600043F010034365836D43F00103836501201C
:1056700048E09968254A0A4042F001029A6000F029
:10568000B3FC054623682249224A934218BF8B4245
:105690000DD102F50072926802F01F021D498B4283
:1056A00007D01946994207D032B100202AE01A4AA1
:1056B000F1E7A1F58071F5E723681A6812F0010F90
:1056C0001DD19A6812F0010F05D199680F4A0A405E
:1056D00042F001029A6000F087FC401B0228EBD9DF
:1056E00023681B6813F0010FE6D1636D43F01003CC
:1056F0006365A36D43F00103A365012002E0002070
:1057000000E0002038BD00BF3F000080C0FFFF7FE9
:10571000002002400021024000630258F8B5044610
:105720000E46174600683D4A3D4B984218BF9042CE
:105730001AD103F500739D6805F01F05806810F00D
:10574000040F67D194F85030012B65D0012384F801
:105750005030052D18BF002D08D0092D06D000238C
:1057600084F85030012056E02E4BE4E72046FFF746
:105770006BFF00284AD1626DA0F60273134043F418
:10578000807363652368264A934239D01A46934250
:1057900000D01DB9636D23F480136365636D13F44A
:1057A000805F30D0A36D23F00603A365E36C1E4A2F
:1057B000DA63E36C1D4A1A64E36C1D4ADA642368F9
:1057C0001C221A60002384F850302268536843F08A
:1057D000100353602168E36ACA6822F0030213438E
:1057E000CB6021683B4632464031E06C04F02CFA35
:1057F000226891680F4B0B4043F0040393600AE06A
:10580000A2F58072C3E70023A365CFE7002384F8E5
:10581000503000E00220F8BD0220FCE700200240EA
:105820000021024000630258C14F0008B54F000834
:1058300049500008C0FFFF7F38B5044602689368EE
:1058400013F0020300D00123916811F0010F37D04B
:10585000002B37D1936803F00D03012B09D0636D42
:1058600043F010036365A36D43F00103A3650120BA
:1058700027E09168144B0B4043F0020393602368C8
:1058800003221A6000F0B0FB054623689B6813F002
:10589000010F13D000F0A8FB401B0228F5D92368A4
:1058A0009B6813F0010FF0D0636D43F01003636544
:1058B000A36D43F00103A365012002E0002000E096
:1058C000002038BD0020FCE7C0FFFF7F38B590F80E
:1058D0005030012B37D00446012380F8503003218B
:1058E000FFF734FE0546D8B92268D36823F00303D6
:1058F000D360E06C90F83530DBB2022B15D0226813
:10590000536823F010035360CDB92046FFF794FF8E
:1059100005462DB9626D0D4B134043F001036365DD
:10592000002384F85030284638BD04F0D9FA0546E3
:105930000028E4D0636D43F040036365DFE7204651
:10594000FFF77AFFE5E70225EDE700BFFEEEFFFF78
:1059500038B5044603684F494F4A934218BF8B42FB
:1059600023D14E4B9B6813F4403F14BF0123002307
:105970004BB301F029FD05466368B3F5003F1CD029
:10598000B3F5403F1DD0B3F5803F16D000F046FB85
:1059900041F20303984258D8414B9D424FD92268A7
:1059A000936843F48073936038BD3E4B9B6813F457
:1059B000403F14BF01230023DAE71B0CB5FBF3F5CE
:1059C000E4E78508E2E74FF40020002102F088FEBA
:1059D00005466368B3F5101F2DD022D8B3F5E01F3C
:1059E00027D004D9B3F5001FD0D14509CEE7B3F5D0
:1059F000801F0DD006D9B3F5A01F09D0B3F5C01F85
:105A000006D0C3E7B3F5002F02D0B3F5402F04D181
:105A10009B0C5B00B5FBF3F5B8E7B3F5802FF7D02F
:105A2000B4E7B3F5201F08D0B3F5301FAED1050A97
:105A3000ACE70509AAE78509A8E7C509A6E7226832
:105A4000936823F480739360AEE7174B9D4205D8AB
:105A50002268936823F440739360A5E7134B9D423B
:105A600007D82268936823F4407343F480739360EB
:105A70009AE70F4B9D4207D82268936823F440733E
:105A800043F4007393608FE72268936843F4407394
:105A9000936089E700200240002102400023024079
:105AA000002D31010063025821BCBE0041787D0108
:105AB00081F0FA0230B583B000230193002800F092
:105AC00010810446436DEBB123689A6812F0005FC1
:105AD00003D09968844A0A409A6023689A6812F051
