:020000040800F2
:100000000000082455D00008513F0008533F000865
:100010006B3F00086D3F00086F3F000800000000C4
:10002000000000000000000000000000713F000818
:10003000733F000800000000753F0008773F00088C
:10004000A5D00008A5D00008A5D00008A5D00008BC
:10005000A5D00008A5D00008A5D00008A5D00008AC
:10006000A5D00008A5D00008A5D00008813F000851
:10007000A5D00008A5D00008A5D00008A5D000088C
:10008000A5D00008A5D00008A5D00008A5D000087C
:10009000913F0008A5D00008A13F000811400008CA
:1000A000A5D00008A5D00008A5D00008B13F0008E1
:1000B000C13F0008D13F0008A5D00008A5D0000826
:1000C000A5D00008A5D00008A5D00008A5D000083C
:1000D000A5D00008E13F0008A5D00008A5D0000881
:1000E000A5D00008A5D0000800000000A5D0000899
:1000F000A5D00008A5D00008A5D00008A5D000080C
:10010000A5D00008A5D000081D400008A5D0000813
:10011000A5D00008A5D00008A5D00008014000081F
:10012000A5D00008A5D00008A5D00008A5D00008DB
:10013000A5D00008A5D00008A5D00008A5D00008CB
:1001400000000000000000000000000000000000AF
:10015000A5D00008A5D00008A5D00008A5D00008AB
:10016000A5D00008A5D00008A5D00008A5D000089B
:10017000A5D00008A5D00008A5D000080000000008
:10018000A5D00008A5D00008A5D00008A5D000087B
:10019000A5D00008A5D00008A5D00008A5D000086B
:1001A000A5D00008A5D00008A5D00008A5D000085B
:1001B000A5D00008A5D00008A5D00008A5D000084B
:1001C000A5D00008A5D00008A5D00008A5D000083B
:1001D000A5D00008A5D00008A5D00008A5D000082B
:1001E000A5D00008A5D00008A5D00008A5D000081B
:1001F000A5D00008A5D00008A5D00008A5D000080B
:10020000A5D00008A5D00008A5D00008A5D00008FA
:10021000A5D00008A5D00008F13F0008A5D000082F
:10022000A5D00008A5D00008A5D000080000000057
:10023000A5D00008A5D0000800000000A5D0000847
:10024000A5D00008A5D00008A5D00008A5D00008BA
:10025000A5D00008A5D00008A5D00008A5D00008AA
:10026000A5D00008A5D00008A5D00008A5D000089A
:10027000A5D00008A5D00008A5D000080000000007
:10028000A5D00008A5D00008A5D0000800000000F7
:0802900000000000A5D00008E9
:1002A00010B5054C237833B9044B13B10448AFF3B0
:1002B00000800123237010BD4407002400000000CB
:1002C000905101080C4B43B10C480D4910B5AFF3E8
:1002D00000800C48036823B910BD0A48036833B98D
:1002E0007047094B002BF7D0BDE810401847064B6C
:1002F000002BF5D0184700BF000000009051010806
:10030000480700244407002400000000034613F8B7
:10031000012B002AFBD1181A013870470000000099
:1003200001F0FF01102A2BDB10F0070F08D010F8A6
:10033000013B013A8B422DD010F0070F42B3F6D1AA
:10034000F0B441EA012141EA014122F007047FF0C3
:1003500000070023F0E80256083C85EA010586EA1A
:10036000010685FA47F5A3FA87F586FA47F6A5FA56
:1003700087F68EB9EED1F0BC01F0FF0102F0070262
:1003800032B110F8013B013A83EA010313B1F8D10D
:100390000020704701387047002D06BF35460338EE
:1003A000073815F0010F07D1013015F4807F02BF27
:1003B000013015F4C03F0130F0BC0138704700BF78
:1003C00081F0004102E000BF83F0004330B54FEA06
:1003D00041044FEA430594EA050F08BF90EA020F73
:1003E0001FBF54EA000C55EA020C7FEA645C7FEA06
:1003F000655C00F0E2804FEA5454D4EB5555B8BF29
:100400006D420CDD2C4480EA020281EA030382EA99
:10041000000083EA010180EA020281EA0303362D2B
:1004200088BF30BD11F0004F4FEA01314FF4801CFE
:100430004CEA113102D0404261EB410113F0004F10
:100440004FEA03334CEA133302D0524263EB4303C7
:1004500094EA050F00F0A780A4F10104D5F1200E65
:100460000DDB02FA0EFC22FA05F2801841F10001C0
:1004700003FA0EF2801843FA05F359410EE0A5F194
:1004800020050EF1200E012A03FA0EFC28BF4CF0C5
:10049000020C43FA05F3C01851EBE37101F000457B
:1004A00007D54FF0000EDCF1000C7EEB00006EEB88
:1004B0000101B1F5801F1BD3B1F5001F0CD3490812
:1004C0005FEA30004FEA3C0C04F101044FEA445269
:1004D00012F5800F80F09A80BCF1004F08BF5FEAF0
:1004E000500C50F1000041EB045141EA050130BDD0
:1004F0005FEA4C0C404141EB010111F4801FA4F173
:100500000104E9D191F0000F04BF01460020B1FAC7
:1005100081F308BF2033A3F10B03B3F120020CDAFF
:100520000C3208DD02F1140CC2F10C0201FA0CF0DD
:1005300021FA02F10CE002F11402D8BFC2F1200C42
:1005400001FA02F120FA0CFCDCBF41EA0C019040F8
:10055000E41AA2BF01EB0451294330BD6FEA040441
:100560001F3C1CDA0C340EDC04F11404C4F120022C
:1005700020FA04F001FA02F340EA030021FA04F33E
:1005800045EA030130BDC4F10C04C4F1200220FA95
:1005900002F001FA04F340EA0300294630BD21FAD3
:1005A00004F0294630BD94F0000F83F4801306BF99
:1005B00081F480110134013D4EE77FEA645C18BF8D
:1005C0007FEA655C29D094EA050F08BF90EA020F24
:1005D00005D054EA000C04BF1946104630BD91EA1C
:1005E000030F1EBF0021002030BD5FEA545C05D11F
:1005F0004000494128BF41F0004130BD14F580045E
:100600003CBF01F5801130BD01F0004545F0FE41D1
:1006100041F470014FF0000030BD7FEA645C1ABF06
:10062000194610467FEA655C1CBF0B46024650EA3D
:10063000013406BF52EA033591EA030F41F4002169
:1006400030BD00BF90F0000F04BF0021704730B5EF
:100650004FF4806404F132044FF000054FF00001C4
:1006600050E700BF90F0000F04BF0021704730B585
:100670004FF4806404F1320410F0004548BF40425A
:100680004FF000013EE700BF42004FEAE2014FEAAF
:1006900031014FEA02701FBF12F07F4393F07F4F8A
:1006A00081F06051704792F0000F14BF93F07F4FBC
:1006B000704730B54FF4607401F0004521F00041FF
:1006C00020E700BF50EA010208BF704730B54FF085
:1006D00000050AE050EA010208BF704730B511F08A
:1006E000004502D5404261EB41014FF4806404F1C2
:1006F00032045FEA915C3FF4DCAE4FF003025FEA44
:10070000DC0C18BF03325FEADC0C18BF033202EBCB
:10071000DC02C2F1200300FA03FC20FA02F001FA25
:1007200003FE40EA0E0021FA02F11444C1E600BFC4
:1007300070B54FF0FF0C4CF4E06C1CEA11541DBF77
:100740001CEA135594EA0C0F95EA0C0F00F0DEF842
:100750002C4481EA030621EA4C5123EA4C5350EA27
:10076000013518BF52EA033541F4801143F4801378
:1007700038D0A0FB02CE4FF00005E1FB02E506F009
:100780000042E0FB03E54FF00006E1FB03569CF05E
:10079000000F18BF4EF0010EA4F1FF04B6F5007F64
:1007A00064F5407404D25FEA4E0E6D4146EB0606D6
:1007B00042EAC62141EA55514FEAC52040EA5E505F
:1007C0004FEACE2EB4F1FD0C88BFBCF5E06F1ED809
:1007D000BEF1004F08BF5FEA500E50F1000041EB40
:1007E000045170BD06F0004646EA010140EA0200ED
:1007F00081EA0301B4EB5C04C2BFD4EB0C0541EA0F
:10080000045170BD41F480114FF0000E013C00F323
:10081000AB8014F1360FDEBF002001F0004170BD47
:10082000C4F10004203C35DA0C341BDC04F1140460
:10083000C4F1200500FA05F320FA04F001FA05F2EC
:1008400040EA020001F0004221F0004110EBD370B9
:1008500021FA04F642EB06015EEA430E08BF20EAE5
:10086000D37070BDC4F10C04C4F1200500FA04F388
:1008700020FA05F001FA04F240EA020001F000411A
:1008800010EBD37041F100015EEA430E08BF20EA8D
:10089000D37070BDC4F1200500FA05F24EEA020ED5
:1008A00020FA04F301FA05F243EA020321FA04F004
:1008B00001F0004121FA04F220EA020000EBD370BB
:1008C0005EEA430E08BF20EAD37070BD94F0000FBB
:1008D0000FD101F00046400041EB010111F4801FEF
:1008E00008BF013CF7D041EA060195F0000F18BFA0
:1008F000704703F00046520043EB030313F4801FDC
:1009000008BF013DF7D043EA0603704794EA0C0F95
:100910000CEA135518BF95EA0C0F0CD050EA4106AB
:1009200018BF52EA4306D1D181EA030101F0004128
:100930004FF0000070BD50EA410606BF1046194650
:1009400052EA430619D094EA0C0F02D150EA01365C
:1009500013D195EA0C0F05D152EA03361CBF10469D
:1009600019460AD181EA030101F0004141F0FE413C
:1009700041F470014FF0000070BD41F0FE4141F4C0
:10098000780170BD70B54FF0FF0C4CF4E06C1CEAC0
:1009900011541DBF1CEA135594EA0C0F95EA0C0F75
:1009A00000F0A7F8A4EB050481EA030E52EA033530
:1009B0004FEA013100F088804FEA03334FF0805551
:1009C00045EA131343EA12634FEA022245EA11157E
:1009D00045EA10654FEA00260EF000419D4208BF2F
:1009E000964244F1FD0404F5407402D25B084FEADC
:1009F0003202B61A65EB03055B084FEA32024FF488
:100A000080104FF4002CB6EB020E75EB030E22BFE4
:100A1000B61A754640EA0C005B084FEA3202B6EBA4
:100A2000020E75EB030E22BFB61A754640EA5C0053
:100A30005B084FEA3202B6EB020E75EB030E22BFE3
:100A4000B61A754640EA9C005B084FEA3202B6EBE4
:100A5000020E75EB030E22BFB61A754640EADC00A3
:100A600055EA060E18D04FEA051545EA16754FEA05
:100A700006164FEAC30343EA52734FEAC2025FEA23
:100A80001C1CC0D111F4801F0BD141EA00014FF0B2
:100A900000004FF0004CB6E711F4801F04BF014383
:100AA0000020B4F1FD0C88BFBCF5E06F3FF6AFAE9F
:100AB000B5EB030C04BFB6EB020C5FEA500C50F12F
:100AC000000041EB045170BD0EF0004E4EEA1131B2
:100AD00014EB5C04C2BFD4EB0C0541EA045170BDB9
:100AE00041F480114FF0000E013C90E645EA060EFD
:100AF0008DE60CEA135594EA0C0F08BF95EA0C0F2B
:100B00003FF43BAF94EA0C0F0AD150EA01347FF472
:100B100034AF95EA0C0F7FF425AF104619462CE749
:100B200095EA0C0F06D152EA03353FF4FDAE1046AC
:100B3000194622E750EA410618BF52EA43067FF4FD
:100B4000C5AE50EA41047FF40DAF52EA43057FF48D
:100B5000EBAE12E74FF0FF3C06E000BF4FF0010C98
:100B600002E000BF4FF0010C4DF804CD4FEA410CFC
:100B70007FEA6C5C4FEA430C18BF7FEA6C5C1BD0C9
:100B800001B050EA410C0CBF52EA430C91EA030F4A
:100B900002BF90EA020F0020704710F1000F91EAA7
:100BA000030F58BF994208BF90422CBFD8176FEA75
:100BB000E37040F0010070474FEA410C7FEA6C5C43
:100BC00002D150EA013C07D14FEA430C7FEA6C5C4A
:100BD000D6D152EA033CD3D05DF8040B704700BF76
:100BE0008446104662468C461946634600E000BFC4
:100BF00001B5FFF7B7FF002848BF10F1000F01BD96
:100C00004DF808EDFFF7F4FF0CBF012000205DF860
:100C100008FB00BF4DF808EDFFF7EAFF34BF0120E5
:100C200000205DF808FB00BF4DF808EDFFF7E0FF7E
:100C300094BF012000205DF808FB00BF4DF808EDCF
:100C4000FFF7CEFF94BF012000205DF808FB00BF36
:100C50004DF808EDFFF7C4FF34BF012000205DF818
:100C600008FB00BF4FEA410C7FEA6C5C02D150EAFE
:100C7000013C0AD14FEA430C7FEA6C5C02D152EA94
:100C8000033C02D14FF0000070474FF00100704765
:100C90004FEA410212F5001215D211D56FF47873A4
:100CA000B3EB625212D94FEAC12343F0004343EA47
:100CB000505311F0004F23FA02F018BF4042704722
:100CC0004FF00000704750EA013005D111F00040AC
:100CD00008BF6FF0004070474FF00000704700BF42
:100CE0004A0011D212F5001211D20DD56FF47873AB
:100CF000B3EB62520ED44FEAC12343F0004343EA00
:100D0000505323FA02F070474FF00000704750EA4A
:100D1000013002D14FF0FF3070474FF000007047B4
:100D20004FEA4102B2F1E04324BFB3F5001CDCF10D
:100D3000FE5C0DD901F0004C4FEAC0024CEA507045
:100D4000B2F1004F40EB830008BF20F00100704774
:100D500011F0804F21D113F13872BCBF01F0004077
:100D6000704741F480114FEA5252C2F11802C2F1A9
:100D7000200C10FA0CF320FA02F018BF40F001002A
:100D80004FEAC1234FEAD32303FA0CFC40EA0C00DC
:100D900023FA02F34FEA4303CCE77FEA625307D119
:100DA00050EA01331EBF4FF0FE4040F44000704750
:100DB00001F0004040F0FE4040F40000704700BFEA
:100DC00053B94AB9002908BF00281CBF4FF0FF31B2
:100DD0004FF0FF3000F07AB9ADF1080C6DE904CEA8
:100DE00000F006F8DDF804E0DDE9022304B0704706
:100DF0002DE9F0478C460D460446089E002B51D144
:100E00008A4217466DD9B2FA82FEBEF1000F0BD0AE
:100E1000CEF1200C01FA0EF520FA0CFC02FA0EF7C6
:100E20004CEA050C00FA0EF44FEA174A250CBCFBFD
:100E3000FAF81FFA87F90AFB18CC45EA0C4508FBBB
:100E400009F3AB420AD9ED1908F1FF3280F0238192
:100E5000AB4240F22081A8F102083D44ED1AA4B251
:100E6000B5FBFAF00AFB105544EA054400FB09F90A
:100E7000A14509D9E41900F1FF3380F00A81A145A9
:100E800040F2078102383C44A4EB090440EA0840E0
:100E90000021002E61D024FA0EF400233460736028
:100EA000BDE8F0878B4207D9002E54D0002186E898
:100EB00021000846BDE8F087B3FA83F1002940F02D
:100EC0008E80AB4202D3824200F2FA80841A65EB34
:100ED00003050120AC46002E3FD086E81010BDE887
:100EE000F08712B90127B7FBF2F7B7FA87FEBEF118
:100EF000000F34D1EB1B3A0C1FFA87FC0121B3FB26
:100F0000F2F8250C02FB183345EA03450CFB08F305
:100F1000AB4207D9ED1908F1FF3002D2AB4200F223
:100F2000D1808046ED1AA3B2B5FBF2F002FB10555A
:100F300043EA05440CFB00FCA44507D9E41900F181
:100F4000FF3302D2A44500F2B8801846A4EB0C048B
:100F500040EA08409DE731463046BDE8F087CEF1D3
:100F6000200405FA0EF307FA0EF720FA04F83A0CFB
:100F700025FA04F448EA0308B4FBF2F14FEA1845F5
:100F800002FB11441FFA87FC45EA044501FB0CF300
:100F9000AB4200FA0EF409D9ED1901F1FF3080F0EF
:100FA0008A80AB4240F2878002393D44EB1A1FFA37
:100FB00088F5B3FBF2F002FB103345EA034500FB72
:100FC0000CF3AB4207D9ED1900F1FF386FD2AB42F9
:100FD0006DD902383D44EB1A40EA01418FE7C1F177
:100FE000200722FA07F88B4005FA01F448EA0303C8
:100FF00020FA07FE4FEA134CFD404EEA040EB5FB03
:10100000FCF94FEA1E440CFB19551FFA83F844EA19
:10101000054509FB08F4AC4202FA01F200FA01FAB4
:1010200008D9ED1809F1FF3043D2AC4241D9A9F1FA
:1010300002091D442D1B1FFA8EFEB5FBFCF00CFBB4
:1010400010554EEA054400FB08F8A04507D9E418FE
:1010500000F1FF3529D2A04527D902381C4440EAC7
:101060000940A4EB0804A0FB02894C45C6464D4646
:1010700015D312D056B1BAEB0E0364EB050404FA93
:1010800007F7CB401F43CC40376074600021BDE8B8
:10109000F0871846F8E69046E0E6C245EAD2B8EB9B
:1010A000020E69EB03050138E4E72846D7E740461E
:1010B00091E78146BEE7014678E702383C4445E7C0
:1010C000084608E7A8F102083D442BE7704700BF37
:1010D00070B50D4E0D4CA41BA4100025A54209D1DE
:1010E0000B4E0C4C14F054F8A41BA4100025A54280
:1010F00005D170BD56F8253098470135EEE756F812
:10110000253098470135F2E758580108585801082A
:10111000585801085C58010802440346934200D124
:10112000704703F8011BF9E72DE9FF4755EC104B19
:101130000D9FDDF830A0002D0E4691461946B8BF30
:1011400022462B4627F02007BBBF05F100431D4672
:1011500000232D23B8BF1446462F0B7004D0452F13
:1011600000D10136022100E0032103AB019302AB61
:1011700000933246534645EC104B00F0CDFC472F10
:10118000804602D119F0010F26D0462F08EB060940
:1011900011D198F80030302B0AD1002200232046CC
:1011A0002946FFF72DFD18B9C6F10106CAF80060FF
:1011B000DAF8003099440022002320462946FFF740
:1011C0001FFD38B93022039B994505D9591C03915D
:1011D0001A70F8E7CDF80C90039B0E9AA3EB080366
:1011E0004046136004B0BDE8F087F7B50346002918
:1011F000B8BF494203F8022BB4BF2D222B22092984
:10120000427020DD0DF1070217460A2691FBF6F524
:1012100006FB15113031092D02F8011C02F1FF34D3
:10122000294609DC3031023A04F8011CBA421C4656
:1012300004D3201A03B0F0BD2246E7E712F8011BE1
:1012400003F8011BF2E730221C46114404F8022B7C
:101250005970EEE72DE9F04F8DB00C46DDF858805F
:1012600016461F46054601F027FA03680493184600
:10127000FFF74CF800230A93D8F8003005900733A5
:1012800023F0070303F1080294F818A0D4F800B083
:10129000C8F80020D3E90023C4E91223D4E9128955
:1012A00029F000430793CDF818804FF0FF32A54B8B
:1012B000DDE90601FFF7D6FC002840F0FB814FF086
:1012C000FF32A04BDDE90601FFF7AEFC002840F03D
:1012D000F1810022002340464946FFF79BFC10B1F4
:1012E0002D2384F84330984B984ABAF1470F8CBFAE
:1012F0009046984603232BF00402236122604FF0AE
:101300000009009733460BAA2146284600F0E2F96F
:10131000013040F093804FF0FF300DB0BDE8F08F0A
:1013200061684B1C4BF480623FD10623636000234D
:1013300003930AAB029309AB009349EC108B0DF1B8
:1013400023032260CDF804A061682846FFF7ECFE75
:101350000AF0DF03472B804609D1099BD81C02DB2A
:101360006268934257DDAAF1020A5FFA8AFABAF17B
:10137000650F099934D80139524604F1500009919A
:10138000FFF733FF0A9A8318012A8146236102DCA2
:101390002268D10701D5013323619DF82330002B4A
:1013A000AFD02D2384F84330ABE7BAF1670F02D0FA
:1013B000BAF1470FBBD189B1002303930AAB029363
:1013C00009AB009349EC108B2260CDF804A00DF11D
:1013D00023032846FFF7A8FE8046BEE70123A5E7C2
:1013E000BAF1660F19D1002963680CDD216113B9C8
:1013F0002268D20702D501330B442361099BA36500
:101400004FF00009C9E713B92268D00701D50233AC
:10141000F3E70123F1E74FF0670A099B0A9A934229
:1014200005DB22682361D107E8D50133E5E7002B0E
:10143000D4BFC3F1020301231344DEE723685A0536
:1014400007D42369424631462846B84701302BD19C
:1014500061E7BAF1650F40F2E28000220023D4E98F
:101460001201FFF7CDFB00283CD00123384A31465A
:101470002846B84701303FF44EAF0A9B099A9A427A
:1014800002DB2368D8070FD5059B049A314628460E
:10149000B84701303FF43FAF4FF0000804F11A099C
:1014A0000A9B013B984512DB23689B0709D54FF047
:1014B000000804F11909E3680B9A9B1A9845C0F2D9
:1014C000EE80E0680B9B9842B8BF184625E70123E1
:1014D0004A4631462846B84701303FF41CAF08F170
:1014E0000108DDE7099B002B34DC0123184A314653
:1014F0002846B84701303FF40EAF099B23B90A9B39
:1015000013B92368D907CFD5059B049A31462846DD
:10151000B84701303FF4FFAE4FF0000904F11A0A5A
:10152000099B5B42994501DB0A9B8BE701235246ED
:1015300031462846B84701303FF4EDAE09F10109C4
:10154000EEE700BFFFFFEF7FF8510108FC510108F3
:10155000085201080A9AA36D9A42A8BF1A46002AA7
:10156000914638DC04F11A034FF0000B29EAE979BF
:101570000693D4F858A0AAEB09039B4533DB0A9BDA
:10158000099A9A423ADB2368DA0737D40A9B099909
:10159000A3EB0A02A3EB01099145A8BF9146B9F15B
:1015A000000F33DC4FF0000829EAE97904F11A0A48
:1015B000099A0A9B9B1AA3EB09039845BFF674AFDF
:1015C0000123524631462846B84701303FF4A3AEC6
:1015D00008F10108ECE71346314642462846B84771
:1015E0000130BFD197E60123069A31462846B84715
:1015F00001303FF490AE0BF1010BBAE7059B049A62
:1016000031462846B8470130C0D184E64B4608EB46
:101610000A0231462846B8470130C3D17BE60A9A10
:10162000012A01DCDB0737D5012342463146284633
:10163000B84701303FF46FAE059B049A3146284607
:10164000B84701303FF467AE00220023D4E912010D
:10165000FFF7D6FA58B14FF0000804F11A0A0A9BB6
:10166000013B98450DDB4B4604F15002EBE60A9B2B
:1016700008F10102013B31462846B8470130F2D15A
:1016800049E60123524631462846B84701303FF427
:1016900042AE08F10108E2E701234246EBE70123ED
:1016A0004A4631462846B84701303FF434AE08F187
:1016B000010800E742464B4640464946FFF7D2FA4A
:1016C00000283FF42DAE014B014A0EE600520108FE
:1016D000045201082DE9F04791461F468A680B69BC
:1016E000DDF820809342B8BF1346C9F8003091F866
:1016F000432006460C4612B10133C9F80030236876
:10170000990642BFD9F800300233C9F80030256885
:1017100015F0060507D104F1190AE368D9F800208D
:101720009B1A9D4229DB94F843302268003318BF8E
:10173000012392062ED404F1430239463046C047B5
:10174000013021D02368E568D9F8002003F00603B2
:10175000042B08BFAD1AA36822690CBF25EAE57502
:1017600000259342C4BF9B1AED184FF000091A34AC
:101770004D451BD10020BDE8F08701235246394674
:101780003046C047013003D14FF0FF30BDE8F0874D
:101790000135C2E7E1185A1C302081F84300224489
:1017A00094F8451082F843100233C4E7012322461F
:1017B00039463046C0470130E6D009F10109D7E784
:1017C0002DE9F04317460A7E85B06E2A98460646F4
:1017D0000C460C9B01F1430E00F0BC801AD8632A22
:1017E0002ED00AD8002A00F0C880582A00F08A803B
:1017F00004F1420584F842202AE0642A01D0692AD3
:10180000F6D121681A6811F0800F23D0111D1960DC
:10181000136827E0732A00F0B48008D86F2A2AD012
:10182000702AE5D10A6842F020020A6003E0752AB6
:1018300021D0782ADCD1782284F845206E4964E0F2
:101840001A6801F14205111D1960136884F84230CD
:101850000123A3E011F0400F02F104011960D7D079
:10186000B2F90030002B03DA2D225B4284F84320CA
:1018700062490A2217E02068196810F0800F03D02F
:10188000081D18600B6806E010F0400F01F104001D
:101890001860F7D00B8859496F2A14BF0A22082212
:1018A000002084F843006568A560002DC0F29C808C
:1018B000206820F004002060002B3FD1002D40F074
:1018C00095807546082A0BD12368DA0708D5236965
:1018D00062689A42DEBF302305F8013C05F1FF350E
:1018E000AEEB05032361CDF800803B4603AA2146F9
:1018F0003046FFF7EFFE013055D14FF0FF3005B015
:10190000BDE8F08381F845203C492268186812F050
:10191000800F00F104051D6001D0036802E0550648
:10192000FBD50388D00744BF42F0200222601BB9D8
:10193000226822F0200222601022B1E77546B3FB34
:10194000F2F002FB1033CB5C05F8013D03460028A2
:10195000F5D1B7E708681A68496910F0800F04D01C
:10196000101D18601368196007E010F0400F02F1B5
:10197000040018601368F6D01980002323617546AF
:10198000B1E71A68111D19601568626800212846C0
:10199000FEF7C6FC08B1401B60606368236100234A
:1019A00084F843309FE723692A4639463046C047CA
:1019B0000130A2D023689B0707D5002504F119093F
:1019C000E368039A9B1A9D4205DBE068039B9842FB
:1019D000B8BF184693E701234A4639463046C04708
:1019E00001308AD00135EBE7002BA7D10B7884F8C2
:1019F000423004F1420565E71B5201080A52010812
:101A00002DE9F74F03690C699C42804600F3828000
:101A1000013C01F114074FEA840E00F1140657F857
:101A2000245056F8240006EB0E03013507EB0E098F
:101A30000193B0FBF5F595B34FF0000A3846B44674
:101A4000D34650F8042B93B205FB03A34FEA134A85
:101A50009BB2ABEB0303120CBCF800B005FB02A277
:101A600013FA8BF34FEA124A1FFA82FBDCF80020CC
:101A7000CBEB124202EB23429BB243EA0243814585
:101A80004FEA224B4CF8043BDBD256F80E3033B908
:101A9000019B043B9E421A4630D3C8F81040404692
:101AA00001F07BF8002825DB013530464FF0000EB1
:101AB00057F8042BD0F800C093B2AEEB0303120C1E
:101AC00013FA8CF3C2EB1C4202EB23429BB243EAB3
:101AD0000243B9454FEA224E40F8043BE8D256F89B
:101AE000242006EB84032AB9043B9E421A460BD3FA
:101AF000C8F81040284603B0BDE8F08F1268043BD8
:101B0000002ACAD1013CC5E71268043B002AEFD184
:101B1000013CEAE70020EEE72DE9F04F57EC106BAF
:101B200097B0CDE90067466A079104460A920F9381
:101B3000209D3EB9102000F0CDFD606246608660B9
:101B40000660C660636A196851B15A684A60012329
:101B500093408B60204600F00CFE636A00221A60FE
:101B6000019B002BBFBF01232B60019B23F000438F
:101B7000B2BF019300232B60DDF80480A84B33EA49
:101B800008031BD10F9A42F20F731360009B23B915
:101B9000C8F31300002800F07885219B53B9A14BAE
:101BA00021E0A14B02930833219A1360029817B0E9
:101BB000BDE8F08F9B4B02930333F5E7DDE9006747
:101BC0000022002330463946FFF71AF8814660B1FB
:101BD0000F9A01231360219B002B00F05385934B38
:101BE000219A1360013B0293E0E714AA15A947EC80
:101BF000106B204601F0C0F8C8F30A558246002D4C
:101C00007ED0C7F3130343F07F51304641F44011B7
:101C1000A5F2FF35CDF848900022854BFEF7D4FBA6
:101C200079A3D3E90023FEF783FD79A3D3E9002349
:101C3000FEF7CCFB064628460F46FEF713FD76A3BB
:101C4000D3E90023FEF774FD02460B4630463946C1
:101C5000FEF7BCFB06460F46FFF71AF80022834644
:101C6000002330463946FEF7D5FF58B15846FEF7F7
:101C7000F9FC02460B4630463946FEF7C1FF08B96B
:101C80000BF1FF3BBBF1160F59D86A4901EBCB01B1
:101C9000DDE90023D1E90001FEF7DAFF002850D08A
:101CA0000BF1FF3B00230E93149B5D1B6B1E0693F1
:101CB00045BFC5F101030593002300234CBF0693E4
:101CC0000593BBF1000F3EDB069BCDF82CB05B44C7
:101CD000069300230893079B092B00F2AF80052B86
:101CE000C4BF043B0793079BA3F10203CCBF0026AC
:101CF0000126032B00F2AE80DFE803F082842F7709
:101D0000159B149D1D4405F23243202B11DD009AD2
:101D100005F21240C3F1400322FA00F008FA03F37F
:101D20001843FEF78FFC0123A1F1F871013D1293D6
:101D300072E7C3F12000009B03FA00F0F1E70123F2
:101D4000B1E70E90B0E7059BA3EB0B030593CBF136
:101D50000003089300230B93BDE7012309930A9B1B
:101D6000002B7ADD04930393656A00226A600421E4
:101D700001F114029A4275D96968204600F0C5FC49
:101D8000636A28601B680293039B0E2B00F2E580B8
:101D9000002E00F0E2809DED007BBBF1000F8DED89
:101DA0000C7B74DD234A0BF00F034FEA2B1602EB7A
:101DB000C303F006D3E9008959D51F4B51EC170B2B
:101DC000D3E90823FEF7DEFDCDE9000106F00F069A
:101DD0000325194F002E4CD142464B46DDE9000148
:101DE000FEF7D0FDCDE900016AE0012309930A9BCB
:101DF0005B4404930133012B0393B8BF0123B3E782
:101E00000023ABE70023F1E761436F63A787D23F6D
:101E1000B3C8608B288AC63FFB799F501344D33FD9
:101E20000000F07F355201082C52010809520108C8
:101E30000000F83F685201084052010801260023C3
:101E4000079309964FF0FF33049303930022122364
:101E50000A9289E701230993F4E70123049303938A
:101E60001A46F5E76A6801326A60490080E7022590
:101E7000AFE7F10708D540464946D7E90023FEF70A
:101E800057FC01358046894676100837A2E700F0F6
:101E90009D80CBF100069F4B9F4F06F00F0203EB96
:101EA000C203D3E90023DDE90C01FEF741FCCDE9D3
:101EB0000001361100230225002E7CD1002B91D188
:101EC0000E9B002B00F08480DDE900890022934BFB
:101ED00040464946FEF79EFE002879D0039B002B22
:101EE00076D0049B002B34DD00228D4B40464946C2
:101EF000FEF71EFCCDE90001049E0BF1FF37013512
:101F00002846FEF7AFFBDDE90023FEF711FC0022B7
:101F1000844BFEF75BFA8046A1F15079002E5AD12E
:101F20000022814BDDE90001FEF74EFA42464B46A6
:101F3000CDE90001FEF78CFE002840F09B8242466E
:101F400009F10043DDE90001FEF764FE002840F0DE
:101F50008F82DDE90C23CDE90023159B002BC0F215
:101F60005081BBF10E0F00F34C816A4B03EBCB03A6
:101F7000D3E900890A9B002B80F2DA80039B002BB7
:101F800000F3D68040F073820022674B40464946FA
:101F9000FEF7CEFBDDE90023FEF750FE039E374639
:101FA000002840F04A82029B029A5D1C3123137084
:101FB0000BF1010B45E2F20705D5D7E90023FEF747
:101FC000B7FB013501237610083775E7022577E75F
:101FD0005F46039E94E7029A4E4B32441392099A4D
:101FE000711E002A48D003EBC103D3E9002300206F
:101FF0004E49FEF7C7FC42464B46FEF7E5F9029D07
:1020000080468946DDE90001FEF742FE0646FEF7FE
:1020100029FB02460B46DDE90001FEF7D5F9303613
:1020200005F8016B42464B46CDE90001FEF7F2FD93
:10203000002865D1DDE9002300203849FEF7C4F906
:1020400042464B46FEF7E6FD002840F0BA80139B5F
:102050009D423FF47EAF0022314B40464946FEF799
:1020600067FB0022804689462D4BDDE90001FEF723
:102070005FFBCDE90001C5E703EBC10142464B46DA
:10208000D1E90001FEF754FBCDE91001029DDDE925
:102090000001FEF7FDFD0646FEF7E4FA3036024683
:1020A0000B46DDE90001FEF78FF905F8016B139B84
:1020B000AB42804689464FF0000225D11B4BDDE93B
:1020C0001001FEF783F902460B4640464946FEF7EB
:1020D000BFFD002875D1DDE9102300201349FEF76C
:1020E00073F902460B4640464946FEF793FD002829
:1020F0003FF42FAF15F8013C302B05F1FF3201D032
:10210000BB464DE01546F5E7054BFEF711FBCDE963
:102110000001BCE768520108405201080000F03F8E
:102120000000244000001C40000014400000E03F7C
:10213000DDE90067029D42464B4630463946FEF7D0
:1021400021FCFEF7A5FD0090FEF78CFA42464B46B7
:10215000FEF7EEFA02460B4630463946FEF734F9F2
:10216000009E039F303605F8016B029EAE1BB742FE
:1021700002460B4638D1FEF729F906460F460246BD
:102180000B4640464946FEF745FDC8B932463B4638
:1021900040464946FEF734FD10B1009BDB070FD4E3
:1021A0005146204600F0E5FA00230F9A2B700BF100
:1021B00001031360219B002B3FF4F8AC1D60F5E494
:1021C0005F4615F8012C392A05F1FF3306D1029A32
:1021D0009A4207D130231370013713461A7801321F
:1021E0001A708DE71D46ECE70022A44BFEF7A0FA1B
:1021F0000022002306460F46FEF702FD00289AD073
:10220000CEE7099A002A00F0CD80079A012A00F350
:10221000AF80129A002A00F0A78003F23343089E91
:10222000059D059A1A440592069A01211A442046F2
:10223000069200F07CFB0746002D0CDD069B002B70
:1022400009DDAB42059AA8BF2B46D21A0592069A21
:10225000ED1AD31A0693089BF3B1099B002B00F0EB
:10226000A580002E10DD39463246204600F0F6FBF0
:10227000524601460746204600F062FB5146804622
:10228000204600F076FAC246089B9A1B04D05146BD
:10229000204600F0E3FB82460121204600F047FB88
:1022A0000B9B002B064640F383801A4601462046CE
:1022B00000F0D4FB079B012B06467CDD4FF00008A5
:1022C000336906EB8303186900F0E3FAC0F12000DC
:1022D000069B184410F01F0000F09680C0F1200308
:1022E000042B40F38780059BC0F11C000344059339
:1022F000069B054403440693059B002B05DD5146D0
:102300001A46204600F0F8FB8246069B002B05DDAE
:1023100031461A46204600F0EFFB06460E9B002B86
:1023200074D03146504600F038FC00286EDA0023A5
:1023300051460A22204600F033FA099B0BF1FF3B7D
:102340008246002B00F0A881002339460A2220464D
:1023500000F026FA049B002B074600F3C880079B79
:10236000022B40F3C48059E0149BC3F1360356E7B7
:10237000039B5E1E089BB342BFBF089B0896F21AE0
:102380000B9BB6BF9B189E1B0B93039BB8BF0026ED
:10239000002BB9BF059B039A059D039BBCBF9D1AEB
:1023A00000233EE7089E059D099F45E7089A6EE7D2
:1023B000079B012B19DC009BBBB9019BC3F31303E3
:1023C0009BB9019B23F000431B0D1B0583B1059BAB
:1023D00001330593069B013306934FF001080B9BD5
:1023E000002B7FF46DAF012072E74FF00008F6E795
:1023F0009846F4E780D0059A1C331A440592069A51
:102400001A441D44134676E70346F4E7039B002B6A
:1024100036DC079B022B33DD039B0493049B63B9DB
:1024200031460522204600F0BBF9014606465046DB
:1024300000F0B3FB00283FF7B6AD0A9B029D6FEAA0
:10244000030B002303933146204600F092F9002F3E
:102450003FF4A6AE039B2BB1BB4203D019462046E6
:1024600000F087F93946204600F083F998E6002607
:102470003746E2E7BB46374695E500BF00002440FB
:10248000099B93BB039B0493029D31465046FFF783
:10249000B7FA00F1300905F8019B029B049AEB1A88
:1024A0009A4200F3DC80029B012AACBF9B180133E7
:1024B00098460023039351460122204600F01CFB5E
:1024C0003146824600F069FB002800F38D8003D17D
:1024D00019F0010F40F08880454615F8013C302B7B
:1024E00005F1FF32AFD11546F7E7039B0493002DAA
:1024F00005DD39462A46204600F0FEFA0746B8F1C7
:10250000000F4CD07968204600F0FFF83A6902329B
:102510000546920007F10C010C3000F0EBF80122A7
:102520002946204600F0E8FA009BDDF80880039772
:1025300003F001030746059331465046FFF760FA62
:102540000399054600F13009504600F026FB3A4653
:1025500000903146204600F03AFBC368024603BBB8
:1025600001460690504600F018FB069A03461146B5
:102570002046069300F0FDF8069BA3B9079A92B98E
:10258000059A82B9B9F1390F29D0009B002B01DDE2
:1025900005F1310908F1010588F8009053E7384644
:1025A000C2E70123E3E7009A002A04DB25D1079A5A
:1025B0001ABB059A0ABB002BECDD514601222046CE
:1025C00000F09AFA3146824600F0E7FA002803DC70
:1025D000E0D119F0010FDDD0B9F1390FD8D139238D
:1025E00088F8003008F10108454615F8013C392B00
:1025F00005F1FF323BD0013340E0002B08F101052B
:1026000005DDB9F1390FEAD009F10109C4E7029BF0
:10261000049A05F8019CEB1A9342A8463FF44BAF8D
:10262000514600230A22204600F0BAF8039B039982
:10263000BB4282464FF000034FF00A02204604D10D
:1026400000F0AEF80390074676E700F0A9F8002303
:1026500003900A223946204600F0A2F8F3E75146DB
:1026600000230A22204600F09BF882460DE7029BD9
:10267000934205D1029A0BF1010B31231370E2E66C
:102680001546B2E7094BFFF7AEBA219B002B7FF44A
:1026900088AA074BFFF7A7BA049B002B3FF7F4AEBD
:1026A000079B022B7FF7F0AEB8E600BF0852010887
:1026B0002C520108F0307047044B1B68186A044B19
:1026C000002808BF1846F030704700BF0000002403
:1026D00064000024024B0146186800F05FBC00BF94
:1026E00000000024024B0146186800F009BC00BF3E
:1026F0000000002410B5431E0A44914200D110BDD1
:1027000011F8014B03F8014FF7E770B5456A04462D
:102710000E463DB91020FFF7DDFF60624560856021
:102720000560C560656AEB6883B1636ADB6853F86E
:102730002600B8B9012101FA06F56A1D920020466B
:1027400000F0D0FB60B1466085600EE021220421DC
:10275000204600F0C7FB636AE860DB68002BE4D129
:10276000002070BD026843F8262000230361C36087
:1027700070BD70B5446A06460D463CB91020FFF79F
:10278000A9FF7062446084600460C4603DB1736AF4
:102790006A68DB6853F82210296043F8225070BD44
:1027A0002DE9F0410D691F4606460C4601F1140E55
:1027B0000023DEF8000081B202FB01710F0C000C57
:1027C00002FB007089B2013301EB00419D424FEAE8
:1027D00010474EF8041BECDCD7B1A3689D4212DB16
:1027E000616830460131FFF790FF2269023204F13F
:1027F0000C01804692000C30FFF77CFF21463046EA
:10280000FFF7B7FF444604EB850301355F6125619F
:102810002046BDE8F0812DE9F8430C4615461F46D9
:1028200009220833064693FBF2F3002101229A4263
:1028300020DB3046FFF769FF089B4361092D4FF00D
:102840000103036119DD04F10909C8462C4418F895
:10285000013B0146303B0A223046FFF7A1FFA0456D
:10286000F5D1A5F108044C442D1B6319BB4207DBCD
:10287000BDE8F88352000131D9E70A340925F3E7AE
:1028800014F8013B0146303B0A223046FFF788FF2F
:10289000EBE7020C12040346B2B90304102013F054
:1028A0007F4F04BF1B02083013F0704F04BF1B01A1
:1028B000043013F0404F04BF9B000230002B06DBB6
:1028C0005B0003D5013070470020E8E72020704707
:1028D000036813F0070201460BD0DA0723D49807E8
:1028E00049BF5B089B0801200B605CBF0B600220A6
:1028F000704798B2A8B91B0C102013F0FF0F04BF4B
:102900001B0A08301A0704BF1B0904309A0704BFCA
:102910009B080230DA0702D45B0806D001300B6056
:1029200070471046E9E7002070472020704710B537
:102930000C460121FFF7E9FE01224461026110BD4E
:102940002DE9F74F14460A6923699A42B8BF0B462E
:102950008946BCBFA1461C46D9F81070D4F810A017
:10296000D9F80830D9F8041007EB0A069E42C8BF10
:102970000131FFF7CAFE00F1140505EB86082B466E
:102980000022434516D304F1140209F1140102EBAD
:102990008A0301EB87070193019C944213460CD8EC
:1029A000002E03DD58F8043D002B54D0066103B01F
:1029B000BDE8F08F43F8042BE3E7B3F800A004323E
:1029C000BAF1000F20D0AE4689464FF0000C59F8FE
:1029D000044BBEF800B0A3B20AFB03B34FEA144B9A
:1029E000DEF8004063444FEA144C0AFB0BC404EBCE
:1029F00013449BB243EA04434F454FEA144C4EF84C
:102A0000043BE4D8CEF800C032F8029CB9F1000FC4
:102A10001FD02B68AE468C464FF0000ABCF8004031
:102A2000BEF802B009FB04B4A2449BB243EA0A43D5
:102A30004EF8043B5CF8043BBEF800401B0C09FB5D
:102A4000034303EB1A4367454FEA134AE6D8CEF82F
:102A500000300435A0E7013EA2E700002DE9F8436D
:102A6000154612F0030206460F4607D0013A214CE4
:102A7000002354F82220FFF793FE0746AD1035D00F
:102A8000746A3CB91020FFF725FE706244608460D0
:102A90000460C460D6F82480D8F808404CB940F2ED
:102AA00071213046FFF743FF0023C8F808000446B1
:102AB00003604FF00008EB070AD53946224630463E
:102AC000FFF73EFF394681463046FFF752FE4F463C
:102AD0006D100BD0206838B9224621463046FFF7EA
:102AE0002FFF2060C0F800800446E4E73846BDE8C8
:102AF000F88300BF305301082DE9F0470C464FEA38
:102B0000621A236949680AEB0309A3680746164657
:102B100009F10105AB4231DB3846FFF7F6FD002233
:102B2000804600F11403114652452ADB20692AEA47
:102B3000EA7A04F1140116F01F0203EB8A0301EB99
:102B4000800E22D0C2F1200C00200E689640304347
:102B500043F8040B51F8040B8E4520FA0CF0F4D81E
:102B6000186008B109F10205013D3846C8F8105057
:102B70002146FFF7FEFD4046BDE8F08701315B00CE
:102B8000C8E743F822100132CEE7043B51F8042B8A
:102B900043F8042F8E45F9D8E6E703690A699B1AC2
:102BA00030B50CD19200143014318418114454F80B
:102BB000045D51F8042D954203D005D30123184636
:102BC00030BDA042F3D3FAE74FF0FF33F7E72DE92A
:102BD000F0470D460746114628461446FFF7DDFF2D
:102BE000061E08D131463846FFF78FFD01230361E9
:102BF0004661BDE8F087A4BF23462C46384661688D
:102C0000A6BF1D4600260126FFF77FFD2B69C66083
:102C1000266905F1140904F1140202EB860709EB99
:102C2000830800F114054FF0000C52F804AB59F87A
:102C3000044B1CFA8AF1A3B2C91A230CC3EB1A4342
:102C400003EB214389B24FEA234CC84541EA0343D1
:102C5000964645F8043BE8D8BE4505D355F8043DF3
:102C60008BB10661BDE8F0875EF8041B1CFA81F3A6
:102C70001A1402EB11429BB243EA02434FEA224C80
:102C800045F8043BE8E7013EE8E70000124B10EE90
:102C9000902A1A40A2F15073002B04DD002019463F
:102CA00041EC100B70475B421B15132B4FF00000DB
:102CB0004FF0000104DC4FF4002242FA03F1EFE789
:102CC000143B1E2B4FF00102DABFC3F11F0302FABF
:102CD00003F313461846E3E70000F07FF8B50569F3
:102CE00000F1140707EB85052E1F55F8044C20460C
:102CF000FFF7CFFDC0F120030A280B60DFF874E076
:102D000014DCC0F10B0C24FA0CF1B74241EA0E03BB
:102D100034BF55F8081C0021153004FA00F021FAE0
:102D20000CF140EA010243EC102BF8BDB7423ABF68
:102D3000A5F1080655F8081C00210B3815D0844071
:102D4000C0F1200544F07F5444F44014BE4221FAFF
:102D500005FE44EA0E038CBF56F8044C002401FA29
:102D600000F0EC4040EA0402DDE744EA0E030A46C4
:102D7000D9E700BF0000F03F2DE9F7430E460121DF
:102D800059EC108B1546FFF7C0FCC9F30A540746EF
:102D9000C9F3130334BB0193B8F1000F27D002A885
:102DA00040F8088DFFF794FD0099F0B1019AC0F149
:102DB000200302FA03F30B43C2407B610192019BA3
:102DC000BB61002B14BF022101213961C4B1A4F2FF
:102DD000334404443460C0F135002860384603B001
:102DE000BDE8F08343F48013D5E77961E7E701A8F4
:102DF000FFF76EFD019B7B61012139612030E5E722
:102E000007EB8103A0F2324030601869FFF741FD03
:102E1000C0EB4110E1E72DE9F7438846694681465A
:102E2000FFF75CFF01A9404655EC104BFFF756FF3A
:102E3000D9F81030D8F810209A1A9DE80A00CB1A59
:102E400003EB421357EC106B002BD6BFC3EB0333DD
:102E500005EB035507EB035732463B462046294610
:102E6000FDF790FD41EC100B03B0BDE8F083013994
:102E700010B549111469013102F1140300EB81010D
:102E800003EB8404A342024603D300238A4205D302
:102E900010BD53F8042B40F8042BF3E742F8043B31
:102EA000F4E700F1140200694B11984210B511DBF0
:102EB0000ADD11F01F0107D052F8234024FA01F077
:102EC00000FA01F18C420BD102EB8303934203D849
:102ED000002010BD0346F7E753F8041D0029F5D084
:102EE000012010BD38B502FB01F4214600F056F870
:102EF000054618B122460021FEF70EF9284638BDD6
:102F000038B50546002945D051F8043C0C1F002B6C
:102F1000B8BFE41800F0C5F81F4A1368104633B96B
:102F2000636014602846BDE8384000F0BBB8A34297
:102F30000CD921686218934204BF1A685B68636009
:102F400004BF521822600460ECE713465A680AB1C5
:102F5000A242FAD919685818A0420BD1206801443E
:102F6000581882421960DDD1106852685A600144D5
:102F70001960D7E702D90C232B60D3E7206821180A
:102F80008A4204BF11685268626004BF0918216058
:102F90005C60C7E738BD00BF6007002470B5CD1C7A
:102FA00025F0030508350C2D38BF0C25002D0646ED
:102FB00001DBA94203D90C233360002070BD00F06F
:102FC00070F8234A1468214691B9224C23681BB932
:102FD000304600F041F820602946304600F03CF8C9
:102FE000431C26D10C233360304600F05BF8E4E745
:102FF0000B685B1B1AD40B2B0FD90B60CD50CC1870
:10300000304600F04FF804F10B00231D20F00700BC
:10301000C31A1BD05A42E25070BD8C420DBF636888
:103020004B686360136018BF0C46E9E70C464968BB
:10303000CAE7C41C24F00304A04205D0211A30467C
:1030400000F00AF80130CDD02560D9E770BD00BF8F
:10305000600700246407002438B5064C00230546A9
:103060000846236000F02CF8431C02D1236803B10A
:103070002B6038BDE8090024D0F8EC00704782B01E
:1030800001B901A942B14BB113780B601278101C41
:1030900018BF012002B070471046FBE76FF0010037
:1030A000F8E77047704749B1FF2A85BF8A2303605C
:1030B0000A704FF0FF3098BF0120704708467047F4
:1030C000044A05491368002B08BF0B4618441060DA
:1030D00018467047680700245017002400B58BB0CD
:1030E000002307930893099300930193029303939A
:1030F0000493059306936E486E4A02604FF4802253
:10310000426083600122C26004210161037542753F
:103110000B2282610377436283620322C2624FF40F
:1031200080520263436380F8383001F0C3FD002809
:1031300040F0938040F2FF7200215D4801F010FFE3
:10314000002840F08D800AA9002341F80C3D584822
:1031500001F060FF002840F08680574B0093062363
:1031600001930423029340F2FF720392049300231D
:1031700005938DF8193069464D4801F02FF8002865
:1031800074D14E4B00930C2301936946484801F0DB
:1031900025F800286DD14A4B00931223019369460C
:1031A000434801F01BF8002866D1464B00931823D2
:1031B000019369463E4801F011F800285FD1424B67
:1031C00000934FF4807301936946394801F006F883
:1031D000002857D13D4B00934FF483730193694608
:1031E000334800F0FBFF00284FD1394B00934FF4D8
:1031F0008673019369462E4800F0F0FF002847D1FE
:10320000344B00934FF4897301936946284800F0CA
:10321000E5FF00283FD1304B00934FF48C730193AE
:103220006946234800F0DAFF002837D12B4B009382
:103230004FF40073019369461D4800F0CFFF80BB37
:10324000274B009340F2062301936946184800F08B
:10325000C5FF48BB0BB05DF804FB0AF071F869E7E5
:103260000AF06EF86FE70AF06BF876E70AF068F894
:1032700087E70AF065F88EE70AF062F895E70AF04A
:103280005FF89CE70AF05CF8A4E70AF059F8ACE7AD
:103290000AF056F8B4E70AF053F8BCE70AF050F821
:1032A000C4E70AF04DF8CBE70AF04AF8D2E700BFCE
:1032B000EC090024002002400800900C1000C0100F
:1032C0002000F014000180210002B0250040C03A27
:1032D0000080F03E00002143000052470000B84F3C
:1032E0004000201970B5BCB00446002137913891D8
:1032F00039913A913B91C02206A8FDF70DFF226853
:10330000504B9A4201D03CB070BD4FF400220023D4
:10331000CDE9062304230893092209920A93022384
:103320000B930C93C0230D9320230E934FF4406313
:103330000F9306A803F0B2FA00287CD1424BD3F8D1
:10334000D82042F02002C3F8D820D3F8D82002F0C9
:1033500020020192019AD3F8E02042F00102C3F862
:10336000E020D3F8E02002F001020292029AD3F8A2
:10337000E02042F00402C3F8E020D3F8E02002F09D
:1033800004020392039AD3F8E02042F00202C3F849
:10339000E020D3F8E02002F002020492049AD3F86D
:1033A000E02042F02002C3F8E020D3F8E03003F040
:1033B00020030593059BFF233793032638960025AA
:1033C000399537A9214805F09BF830233793389673
:1033D000399537A91E4805F093F8379638963995F0
:1033E00037A91C4805F08CF84FF4C0533793389632
:1033F000399537A9184805F083F81848184B036029
:10340000092343608560C5604FF4806303614FF416
:10341000006343614FF4005383614FF48073C361D1
:103420004FF400330362456205F040FC30B90B4BAA
:10343000E3649C6367E709F083FF7FE709F080FF9F
:10344000F5E700BF00200240004402580000025887
:10345000000802580004025800140258500A0024C0
:103460001000024038B51648164B036000238360F5
:10347000C360037443748374192545610124846116
:103480000D21C1610222026245628462C16202634F
:1034900043638263C3630321016404224264816441
:1034A000C2640165426583651221C1650166436698
:1034B000826607F09BF900B938BD09F041FFFBE7D0
:1034C000680B002400A4004010B5BAB004460021E7
:1034D00035913691379138913991C02204A8FDF782
:1034E0001BFE23684F4A934204D04F4A934240D078
:1034F0003AB010BD4FF400420023CDE904234FF051
:103500008053209304A803F0C9F908BB474A136805
:1035100001331360012B1ED0454BD3F8E02042F05D
:103520000102C3F8E020D3F8E03003F00103019377
:10353000019B4FF4C05335930223369300233793F6
:1035400038930923399335A93A4804F0D9FFCFE7D6
:1035500009F0F6FEDAE7364BD3F8EC2042F480723D
:10356000C3F8EC20D3F8EC3003F480730093009B95
:10357000D2E74FF400420023CDE904234FF08053FB
:10358000209304A803F08AF900283AD1274A136847
:1035900001331360012B37D0254BD3F8E02042F0E4
:1035A0000202C3F8E020D3F8E03003F002030393F3
:1035B000039B4FF4405335930223369300243794F2
:1035C000032338930923399335A91B4804F098FF46
:1035D00022462146142006F08BFF142006F0B8FF87
:1035E00022462146162006F083FF162006F0B0FF83
:1035F000224621463F2006F07BFF3F2006F0A8FF31
:1036000076E709F09DFEC1E7094BD3F8EC2042F4C0
:103610008072C3F8EC20D3F8EC3003F4807302938B
:10362000029BB9E700A0004000A400406C07002402
:1036300000440258000002580004025870B58EB0D1
:10364000002409940A940B940C940D94534BD3F8D2
:10365000E02042F00402C3F8E020D3F8E02002F0BA
:1036600004020192019AD3F8E02042F08002C3F8EC
:10367000E020D3F8E02002F080020292029AD3F810
:10368000E02042F00102C3F8E020D3F8E02002F08D
:1036900001020392039AD3F8E02042F00202C3F839
:1036A000E020D3F8E02002F002020492049AD3F85A
:1036B000E02042F02002C3F8E020D3F8E02002F03E
:1036C00020020592059AD3F8E02042F01002C3F8D8
:1036D000E020D3F8E02002F010020692069AD3F818
:1036E000E02042F00802C3F8E020D3F8E02002F026
:1036F00008020792079AD3F8E02042F04002C3F88C
:10370000E020D3F8E03003F040030893089B244DF9
:1037100022464FF47C41284604F0F7FF4FF4406303
:10372000099312230A930B940C9404230D9309A973
:103730001C4804F0E5FE4FF4F843099301260A966D
:103740000B940C9409A9284604F0DAFE4FF40043C8
:1037500009930A9602230B930C9409A9284604F0B6
:10376000CFFEFF2309930A940B9609A9284604F07B
:10377000C7FE802309934FF488130A930B9409A979
:10378000094804F0BDFE22462146172006F0B0FE8F
:10379000172006F0DDFE0EB070BD00BF00440258D9
:1037A000000C0258000402580010025808B51248D4
:1037B000124B0360124B4360002383600122C260FE
:1037C000036143618361C361036201F02BFF50B960
:1037D0000021094802F02EF940B90021064802F004
:1037E00057F930B908BD09F0ABFDF1E709F0A8FDC4
:1037F000F3E709F0A5FDF5E7080C002400580040A8
:10380000B634900010B5B8B004460021339134911D
:10381000359136913791C02202A8FDF77DFC2268D0
:103820001B4B9A4201D038B010BD38A808220023A3
:1038300060E9362303F032F838BB164CD4F8E03098
:1038400043F00203C4F8E030D4F8E03003F00203A0
:103850000093009B4FF4406333931223349300236F
:10386000359336930423379333A90B4804F048FE6D
:10387000D4F8E83043F48003C4F8E830D4F8E830F2
:1038800003F480030193019BCDE709F059FDD4E7D0
:1038900000580040004402580004025800B595B09A
:1038A000242200210BA8FDF737FC0023089309937D
:1038B0000A9301930293039304930593069307934A
:1038C00020484FF080420260436083604FF4805292
:1038D000C2600361836108F0D9FB38BB03230B93FB
:1038E00000230C9301220D920E930F9310931192CB
:1038F000129313930BA9134808F026FCC8B90023B0
:1039000008930A9308A90F4809F008FBA0B960239F
:10391000019300230293039305930C2201A9094804
:1039200008F0F1FC58B915B05DF804FB09F008FD8A
:10393000D4E709F005FDE2E709F002FDE7E709F049
:10394000FFFCF0E78C0D002408B50A480A4B036021
:1039500009234360002383604FF47A72C2600361DD
:103960004361836108F034FB00B908BD09F0E8FC4D
:10397000FBE700BF5C0C00240048014000B585B0A7
:1039800000230193029303930F48104A02604CF204
:1039900050324260836049F64042C260836108F061
:1039A00017FB50B900230193039301A9064809F0BE
:1039B000B5FA28B905B05DF804FB09F0C1FCF1E7E0
:1039C00009F0BEFCF6E700BFD80D0024001400404B
:1039D00000B591B000230C930D930E930F930793B2
:1039E000089309930A930B93039304930593069307
:1039F0000093019302932F482F4A02604360836033
:103A00004FF0FF32C2600361836108F0E1FA0028E1
:103A10003AD110A94FF4805341F8103D254808F0E1
:103A2000CFFD002833D1234808F05FFB002831D1B7
:103A30000423079350230893002309930A930B93BD
:103A400007A91C4808F0CAFE38BB002203920123D4
:103A500004930592069203A9164808F043FDF8B9AD
:103A6000022303930493042203A9124808F03AFDA9
:103A7000C8B900230093029369460E4809F04EFA34
:103A8000A0B911B05DF804FB09F05AFCC1E709F0D8
:103A900057FCC8E709F054FCCAE709F051FCD4E729
:103AA00009F04EFCDCE709F04BFCE2E709F048FCCA
:103AB000E7E700BFA80C0024000C004000B58BB065
:103AC00000230593069307930893099303683E4ADE
:103AD00093420BD03D4A93421ED03D4A934231D08F
:103AE0003C4A934244D00BB05DF804FB3A4BD3F808
:103AF000F02042F00102C3F8F020D3F8F03003F0D8
:103B000001030093009B002211461B2006F0F0FCED
:103B10001B2006F01DFDE6E72F4BD3F8F02042F402
:103B20008022C3F8F020D3F8F03003F4802301930F
:103B3000019B00221146762006F0DAFC762006F082
:103B400007FDD0E7244BD3F8E82042F02002C3F869
:103B5000E820D3F8E83003F020030293029B002210
:103B60001146372006F0C4FC372006F0F1FCBAE716
:103B7000194BD3F8E82042F00802C3F8E820D3F844
:103B8000E82002F008020392039AD3F8E02042F002
:103B90000102C3F8E020D3F8E03003F001030493FE
:103BA000049B0123059302230693099305A90B485F
:103BB00004F0A6FC00221146322006F099FC3220C7
:103BC00006F0C6FC8FE700BF00000140004801403E
:103BD00000140040000C004000440258000002584D
:103BE00030B589B00023039304930593069307939C
:103BF0000368B3F1804F01D009B030BD214BD3F839
:103C0000E82042F00102C3F8E820D3F8E82002F0EF
:103C100001020092009AD3F8E02042F00102C3F8BA
:103C2000E020D3F8E02002F001020192019AD3F8DB
:103C3000E02042F00202C3F8E020D3F8E03003F0C5
:103C400002030293029B4FF4004303930224049463
:103C50000125079503A90C4804F052FC082303939F
:103C60000494002405940694079503A9074804F0DA
:103C700047FC224621461C2006F03AFC1C2006F098
:103C800067FCB9E7004402580000025800040258DB
:103C900002680F4B9A4200D0704700B583B00D4BBD
:103CA000D3F8E82042F00202C3F8E820D3F8E83065
:103CB00003F002030193019B002211461D2006F030
:103CC00017FC1D2006F044FC03B05DF804FB00BFA8
:103CD000000400400044025800B589B0002303935B
:103CE000049305930693079303681C4A934205D0F7
:103CF0001B4A93421BD009B05DF804FB194BD3F863
:103D0000E02042F01002C3F8E020D3F8E03003F0E6
:103D100010030193019B4FF47C53039302230493FC
:103D20000123079303A9104804F0EAFBE3E70D4BD6
:103D3000D3F8E02042F00202C3F8E020D3F8E030EC
:103D400003F002030293029B1023039302230493C4
:103D5000079303A9054804F0D3FBCCE7000001401A
:103D600000040040004402580010025800040258A9
:103D700010B59AB0002416941794189419941394BB
:103D8000149415940C940D940E940F941094119413
:103D900012942C22214601A8FDF7BEF93C483D4B68
:103DA0000360032343602023836040F6C413C36091
:103DB00004614461846108F00BF900284FD11AA90D
:103DC0004FF4805341F8103D314808F0F9FB0028CA
:103DD00048D12F4808F05AF9002846D10023139300
:103DE0001493159313A92A4809F098F800283FD195
:103DF00060230C9300220D920E920F92109211925A
:103E000012920CA9224808F07EFA002833D104222D
:103E10000CA91F4808F077FA00282FD108220CA916
:103E20001B4808F070FA60BB0023019302930393D0
:103E3000B922049205934FF4005206920793089317
:103E40004FF0007209920A930B9301A9104809F0F0
:103E5000B5F8C8B90E48FFF73FFF1AB010BD09F01A
:103E60006FFAACE709F06CFAB3E709F069FAB5E765
:103E700009F066FABCE709F063FAC8E709F060FAEE
:103E8000CCE709F05DFACFE709F05AFAE2E700BFA4
:103E9000400D00240000014000B58BB000230793C3
:103EA000089309930093019302930393049305935A
:103EB00006931748174A0260436083604FF6FF720B
:103EC000C2600361836108F0B2F8B8B900230793B8
:103ED000099307A90E4809F021F890B90022009231
:103EE0000192029204926946094808F0CFF958B944
:103EF0000748FFF7F1FE0BB05DF804FB09F020FA6C
:103F0000E4E709F01DFAE9E709F01AFAF0E700BF63
:103F1000F40C00240004004000B583B00B4BD3F830
:103F2000D82042F00102C3F8D820D3F8D83003F0EB
:103F300001030193019B002211460B2006F0D8FAE1
:103F40000B2006F005FB03B05DF804FB00440258AB
:103F5000FEE708B500200AF06DFD03200AF036FEEA
:103F60004FF4FA7001F082F9F7E7FEE7FEE7FEE7AB
:103F700070477047704708B501F066F908BD00004A
:103F800008B5024805F07CFE08BD00BF500A0024B9
:103F900008B5024806F08EFF08BD00BF680B00247C
:103FA00008B5024806F086FF08BD00BF680B002474
:103FB00008B5024807F0BFFE08BD00BF400D002451
:103FC00008B5024807F0B7FE08BD00BF8C0D0024FD
:103FD00008B5024807F0AFFE08BD00BFF40C00248E
:103FE00008B5024807F042F908BD00BF240E0024BE
:103FF00008B5024807F09FFE08BD00BF5C0C002416
:1040000008B5024807F097FE08BD00BFD80D002490
:1040100008B5802004F088FB08BD000008B5024800
:1040200007F089FE08BD00BFA80C002482B0074B32
:10403000D3F8F42042F00202C3F8F420D3F8F430AD
:1040400003F002030193019B02B070470044025841
:10405000294AD2F8883043F47003C2F88830274BDD
:104060001B6803F00F03062B06D8244A136823F0BD
:104070000F0343F007031360214B1A6842F001025B
:104080001A6000221A6119681E4A0A401A601B4B06
:104090001B6803F00F03072B06D9184A136823F097
:1040A0000F0343F007031360154B00229A61DA6196
:1040B0001A62154999621549D962154919635A63FB
:1040C0009963DA6319645A64196821F480211960CC
:1040D0001A66104B1A68104B1340B3F1005F02D2FE
:1040E00001220E4B1A6043F2D2020D4B1A604FF0C0
:1040F0000062014B9A60704700ED00E00020005222
:10410000004402587FEDF6EA000202020000FF01BF
:10411000800201010010005C0000FFFF08810051D7
:104120000040005208B5806B09F080F908BD704767
:1041300008B5836B5A6D12F0500F35D15A6D42F4A9
:1041400000725A651A68116811F0080F18D0D1680A
:1041500011F4406F12D1012111B3D26812F4005F43
:104160001ED15A6D22F480725A655A6D12F4805F26
:1041700016D15A6D42F001025A6511E00021EBE7B9
:10418000D26812F0030F0BD15A6D22F480725A6577
:104190005A6D12F4805F03D15A6D42F001025A65E4
:1041A000184609F059F908BD5A6D12F0100F03D1E5
:1041B000DB6CDB6C984708BD1846FFF7B8FF08BDFD
:1041C00008B5806B436D43F040034365836D43F056
:1041D00004038365FFF7ABFF08BD0000F0B583B0B3
:1041E0000022019290F85020012A00F06C820346D0
:1041F000012280F850200068826812F0040F00F05D
:10420000B0800125002D40F050820A68C2F31304EB
:10421000002C40F0A880C2F38462012404FA02F268
:10422000C4692243C2611F684E680C683037320A85
:10423000920002F00C02B85806F01F064FF01F0E55
:104240000EFA06FE20EA0E00C4F38464B440204354
:10425000B8501C68A26812F0040F00F09180012091
:10426000A26812F0080F00F08D80012280F001009A
:1042700082F0010210424FD00F68886814347A0E21
:10428000920002F00402A658C7F304574FF0070E3D
:104290000EFA07FE26EA0E06B8403043A050B44A94
:1042A000126802F07042B2F1805F6DD01868C26887
:1042B00012F0100F70D14A69C068C0F3820040004C
:1042C00082400F69042F75D01C680E68603454F862
:1042D000270000F0004006F0F8463243024344F85D
:1042E00027201A680E69487E01285DD02846603272
:1042F00052F8264024F00044204342F826001C686F
:1043000008690A7E012A52D0226922F4F04200F0A4
:104310001F008540154325611868826812F0010F5F
:104320007CD00122002A40F0CA810A68CD68D0F80A
:10433000C040C2F3130624EA060405F018068D4DAA
:10434000F5402A40C2F313022243C0F8C020C868D7
:10435000894A904264D00A68002AC0F22181002074
:10436000A8E100254EE792FAA2F212B1B2FA82F267
:1043700000E0202202F01F02012404FA02F24FE7BB
:1043800000206DE7002271E74A691868C068C0F331
:1043900082004000824094E74A69C068800800F0CB
:1043A0000400400082408CE74FF000409FE74FF44C
:1043B0000065A9E71868026E02F0F8420C68B2EBDB
:1043C000846F1CD01868426E02F0F8420C68B2EBA1
:1043D000846F19D01868826E02F0F8420C68B2EB54
:1043E000846F16D01868C26E02F0F8420C68B2EB07
:1043F000846F91D1C26E22F00042C2668CE7026ED9
:1044000022F000420266DDE7426E22F00042426680
:10441000E0E7826E22F000428266E3E7002281E755
:104420001C680A68C2F31306002E35D1900E0130C5
:1044300000F01F0009288CBF00200120002862D056
:10444000002E38D1900E0130800600F0F840002E8A
:104450003DD1950E013505F01F070125BD402843CC
:10446000002E42D1920E013202F01F0202EB4202F4
:10447000120502438D681434500E800000F00400D1
:104480002658C2F304520727974026EA070605FA82
:1044900002F2324322505EE792FAA2F048B1B0FA3B
:1044A00080F0013000F01F0009288CBF002001209F
:1044B000C4E72020F5E792FAA2F030B1B0FA80F01C
:1044C0000130800600F0F840C1E72020F8E792FABA
:1044D000A2F545B1B5FA85F5013505F01F050127AF
:1044E00007FA05F5BBE72025F6E792FAA2F242B1FA
:1044F000B2FA82F2013202F01F0202EB420212050E
:10450000B7E72022F6E7CEB9950E0135AD0605F0E6
:10451000F845FEB9900E013000F01F070120B840A9
:1045200005435EBB900E013000F01F0000EB40021F
:104530001E3A120542F000722A439BE792FAA2F556
:1045400035B1B5FA85F50135AD0605F0F845E0E77A
:104550002025F8E792FAA2F040B1B0FA80F00130DD
:1045600000F01F00012707FA00F0D9E72020F6E746
:104570000010005CFFFF0F000000FF4792FAA2F25C
:1045800062B1B2FA82F2501C00F01F0000EB400052
:10459000A0F11E02120542F00072CDE72022F2E7E0
:1045A00019684A484A4CA14218BF81420CBF0120F9
:1045B000002021D1474DAC6804F0E07610B34348A9
:1045C000806810F0010F19D00120414FBF6817F02B
:1045D000010F15D0012738430CBF0120002000280F
:1045E0005DD03D48824218D03C48824235D03C489C
:1045F000824243D000205DE03A4DDCE70020E4E752
:104600000027E8E73848806810F0010F03D0012048
:1046100080F00100E3E70020FAE714F4000FE3D193
:10462000314A914201D0002044E046F40002A968DA
:1046300021F0E0710A43AA602C4A12682C49B2FBAF
:10464000F1F201325200019202E0019A013A019224
:10465000019A002AF9D100202CE014F0807FC6D105
:10466000214A914201D0002024E046F08072A968DE
:1046700021F0E0710A43AA6000201BE014F4800FCF
:104680001FD1194A914201D0002013E046F4800264
:10469000A96821F0E0710A43AA6000200AE05A6D7F
:1046A00042F020025A65012004E05A6D42F02002D7
:1046B0005A650120002283F8502003B0F0BD00208D
:1046C000F8E70020F6E70220F7E700BF00200240ED
:1046D0000021024000230240000084CB000052C7AA
:1046E0000000B8CF0063025800600258D0010024D7
:1046F000400D030070B5044603689A6812F0040F79
:1047000059D001209A6812F0080F56D001220243B6
:104710007BD0DA6812F0007F04D0A08A40F2011248
:10472000904256D0022912D023689A6812F0040FE2
:104730005DD001225AB19A6812F0020F59D00122BD
:104740002AB99868324A024042F010029A60012960
:1047500012D023689A6812F0080F4CD001225AB187
:104760009A6812F0020F48D001222AB99868284AA4
:10477000024042F020029A60022942D003293ED131
:104780000C2500F06DFD064623689B681D423AD05B
:1047900000F066FD801B0528F6D923689B681D4242
:1047A000F2D0636D43F010036365A36D43F0010322
:1047B000A365012070BD0020A4E70022A7E7636D78
:1047C00043F010036365A36D43F00103A36501206B
:1047D00070BD0022196811F0400F04D10D498A42C2
:1047E000EDD80132F6E740221A6001219AE7002253
:1047F000A0E70022A4E70022B1E70022B5E70425E4
:10480000BFE70825BDE7002070BD002070BD00BFD8
:10481000C0FFFF7FFFDB0C0038B503689A6812F019
:10482000010F10D00122002A5CD199682E4A114252
:104830000BD0436D43F010034365836D43F00103D8
:104840008365012038BD0022EDE704469968274AB8
:104850000A4042F001029A6000F002FD054623681A
:10486000234A2449934218BF8B4230D102F500728B
:10487000926802F01F021E498B422AD019469942C3
:1048800000D04ABB23681A6812F0010F28D19A6839
:1048900012F0010F22D001222AB99968134A0A4066
:1048A00042F001029A6000F0DBFC401B0228E9D9CB
:1048B00023681B6813F0010FE4D1636D43F010030C
:1048C0006365A36D43F00103A365012038BD0A4A67
:1048D000CEE7A1F58071D2E7002038BD0022DBE7EA
:1048E000002038BD002038BD3F000080C0FFFF7FA2
:1048F000002102400020024000630258F8B504681D
:10490000414D424EAC4218BFB4420DD105F5007581
:10491000AD6805F01F05A46814F0040F06D001244B
:1049200034B102231846F8BD394DF1E70024F7E70A
:1049300090F85030012B64D0012380F85030052DC1
:1049400018BF002D06D0092D04D0002380F8503068
:104950000123E7E716460F460446FFF75DFF0346CF
:1049600000284AD1626D2B4B134043F4807363657A
:104970002368254A93423AD01A469A4200D01DB97C
:10498000636D23F480136365636D13F4805F31D02E
:10499000A36D23F00603A365E36C1F4ADA63E36C9F
:1049A0001E4A1A64E36C1E4ADA6423681C221A60E9
:1049B000002384F850302268536843F0100353609A
:1049C0002168E36ACA6822F003021343CB602168BE
:1049D00033463A464031E06C04F09CFB03462168C4
:1049E0008868104A024042F004028A609AE7A2F501
:1049F0008072C2E70023A365CEE7002284F850202E
:104A000090E702238EE700BF002102400020024011
:104A100000630258FEF0FFFF314100082541000805
:104A2000C1410008C0FFFF7F38B503689A6812F0E3
:104A3000020F18D001219A6812F0010F15D001223F
:104A4000002A3CD000293CD19A6802F00D02012ACC
:104A50000DD0436D43F010034365836D43F00103B4
:104A60008365012038BD0021E5E70022E8E7044620
:104A70009968154A0A4042F002029A6003680322CC
:104A80001A6000F0EDFB054623689B6813F0010FE8
:104A900013D000F0E5FB401B0228F5D923689B6882
:104AA00013F0010FF0D0636D43F010036365A36D45
:104AB00043F00103A365012038BD002038BD00206C
:104AC00038BD002038BD00BFC0FFFF7F38B590F86B
:104AD0005030012B02D10224204638BD0546012367
:104AE00080F850300321FFF705FE0446D8B92A6844
:104AF000D36823F00303D360E86C90F83530DBB261
:104B0000022B14D02A68536823F010035360C4B9F1
:104B10002846FFF789FF04462CB96A6D0B4B1340FA
:104B200043F001036B65002385F85030D4E704F0AF
:104B3000B3FC04460028E5D06B6D43F040036B6581
:104B4000E0E72846FFF770FFE6E700BFFEEEFFFF55
:104B500038B5054603684F4A4F49934218BF8B4208
:104B600023D14E4B9B6813F4403F14BF0123002315
:104B70004BB301F053FD04466B68B3F5003F1CD006
:104B8000B3F5403F1DD0B3F5803F16D000F082FB57
:104B900041F20303984257D8414B9C424ED92A68B0
:104BA000936843F48073936038BD3E4B9B6813F465
:104BB000403F14BF01230023DAE71B0CB4FBF3F4DE
:104BC000E4E78408E2E74FF40020002102F0D0FE81
:104BD00004466B68B3F5C01F16D00BD9B3F5101F90
:104BE00028D01DD8B3F5E01F22D0B3F5001FCDD1DA
:104BF0004409CBE7B3F5402F06D00AD8B3F5802F90
:104C000002D0B3F5002FC1D19B0C5B00B4FBF3F4D1
:104C1000BCE7B3F5801FF7D0B3F5A01FB6D1F3E71B
:104C2000B3F5201F08D0B3F5301FAFD1040AADE7AC
:104C30000409ABE78409A9E7C409A7E72A689368D0
:104C400023F48073936038BD6408174B9C420BD9E2
:104C5000164B9C420ED9164B9C4213D92A68936876
:104C600043F44073936038BD2A68936823F440731B
:104C7000936038BD2A68936823F4407343F48073CB
:104C8000936038BD2A68936823F4407343F400733B
:104C9000936038BD00210240002002400023024002
:104CA000002D310100630258105E5F0020BCBE0081
:104CB00040787D0130B583B000230193002800F0D7
:104CC00035810446436D0BB323689A6812F0005F88
:104CD00023D001221AB19968954A0A409A60236844
:104CE0009A6812F0805F1AD0012202BB9968914A3B
:104CF0000A4042F080529A608F4B1B689B098F4A92
:104D0000A2FB03239B09013301930DE0FEF7EAFAAE
:104D10000023A36584F85030D6E70022DAE70022AA
:104D2000E3E7019B013B0193019B002BF9D1236831
:104D30009A6812F0805F00F0A9800122002A40F0FA
:104D4000A780626D42F010026265A26D42F001021E
:104D5000A26501259A6812F0040F00F09B800121E2
:104D6000626D12F0100F40F0D980002940F0D6801B
:104D7000626D22F4817242F0020262659A6812F05A
:104D8000010F00F08980012212BB6D496D4A9342E8
:104D900018BF8B420CBF0123002340F083808A6838
:104DA00012F0010F7AD00121664A926812F0010FC9
:104DB00076D001220A430CBF0122002242B1002B0F
:104DC0007BD0614963688A6822F47C1213438B604C
:104DD00000F060FA41F20303984202D9A368102B55
:104DE0006DD0627D236B43EA4233A2681343227F76
:104DF00043EA0243227F012A6CD0626A22B102F4A4
:104E00007872A16A0A4313432168C8684F4A024076
:104E10001343CB6023689A6812F0040F5FD001211E
:104E20009A6812F0080F5CD0012281F0010182F033
:104E3000010211421BD0217DE26A42EA8132D86828
:104E4000434901400A43DA6094F83830012B4AD0D4
:104E50002268136923F0010313612268136923F0A8
:104E60007043616B0B4313612046FFF771FEE368EB
:104E7000012B4AD02268136B23F00F031363636D79
:104E800023F0030343F0010363654CE0002255E780
:104E900000255FE7002163E7002275E7002183E733
:104EA000002287E72B4A926812F0010F03D00122FB
:104EB00082F0010282E70022FAE7274982E7617D5A
:104EC000226B42EA41321343227F43EA024343F01A
:104ED0000C038FE7226A013A43EA42438DE700213F
:104EE0009EE70022A1E7206802691C4B1340E26B99
:104EF000511E226C42EA0142616C0A43A16C0A43D2
:104F0000134343F001030361A7E721680B6B23F010
:104F10000F03A269013A13430B63B0E7636D43F0DB
:104F2000100363650125284603B030BD0125FAE76B
:104F3000C0FFFF5FC0FFFF6FD0010024632D3E055F
:104F400000200240002102400023024003C0F0FF85
:104F5000FCBFFFFF00600258006302581EF800FC0F
:104F6000F0B583B00023019390F85030012B03D1AA
:104F70000223184603B0F0BD16460D460446012331
:104F800080F85030FFF750FD034638B1626D42F0B3
:104F900010026265002284F85020EAE7616D1A4A27
:104FA0000A4042F0020262652768BA68174810405A
:104FB00005F4803106F080421143014341F0004185
:104FC000B96013E0636D23F0120343F010036365CF
:104FD000002384F850300123CBE7012262B1019A0B
:104FE0000132019201990A4A9142EBD822689268F3
:104FF000002AF2DB0022F1E7626D22F0030242F0A8
:1050000001026265C6E700BFFDEEFFFFC0FFFE3F85
:10501000FFF7C32590F85020012A00F0B38030B488
:105020009AB00346012280F850200022169217926F
:1050300002685548824247D000200190019800281C
:1050400046D0806810F0040F4BD00124906810F017
:10505000040F48D00120002840F08580002C40F04B
:1050600082804A48484C824218BFA2423DD100F596
:1050700000700A68002A49D0826822F440424C68D5
:10508000224382601A68414C3F4DA24218BFAA4297
:1050900031D1AA6812F0010F29D001243B4A92684D
:1050A00012F0010F25D0012222430CBF0122002261
:1050B000002A63D08468364A22400C6889682143FC
:1050C0000A438260002053E000F580700190B5E74C
:1050D0005A6D42F020025A65002283F850200120C8
:1050E00049E00024B2E70020B5E72A48C1E70024E0
:1050F000D4E70022D8E7284A926812F0010F03D0C3
:10510000012282F00102D3E70022FAE7816821F44C
:105110004041816019681D4C1B4DA14218BFA94236
:1051200017D1A96811F0010F11D00124174989681E
:1051300011F0010F00D0012222430CBF01220022F6
:10514000F2B18168124A0A408260002010E01446E1
:10515000ECE71149896811F0010F00D00122B2FA81
:1051600082F25209ECE75A6D42F020025A650120A2
:10517000002283F850201AB030BC70470020F7E7B7
:105180000020F5E702207047002002400021024085
:10519000E0F0FFFF0063025800600258104B1B78DC
:1051A0000BB90120704710B504464FF47A70B0FB7C
:1051B000F3F30C4A1068B0FBF3F005F0D7F968B9C7
:1051C0000F2C01D9012010BD002221464FF0FF30E5
:1051D00005F08EF9044B1C60002010BD012010BDAD
:1051E000D8010024D0010024DC01002410B50320E4
:1051F00005F06CF900F0D2FF0F498B69C3F303236C
:105200000E4AD35C03F01F03D8408B6903F00F03F1
:10521000D35C03F01F0320FA03F3094A1360094B20
:1052200018600F20FFF7BAFF10B10124204610BD0F
:105230000446FEF7FBFEF9E7004402584854010813
:10524000D4010024D0010024034B1B78034A1168C9
:105250000B441360704700BFD8010024B80E00242F
:10526000014B1868704700BFB80E002438B50446DB
:10527000FFF7F6FF0546B4F1FF3F02D0044B1B7861
:105280001C44FFF7EDFF401B8442FAD838BD00BF35
:10529000D8010024014B1868000C70470010005C16
:1052A00003689A6912F0020F01D000229A62036823
:1052B0009A6912F0010F03D19A6942F001029A61D2
:1052C000704710B4019CC1F3090141EA024119433E
:1052D000214321F0004102685368640D04F48064A6
:1052E00044F07F7444F4583444F47F7444F003046D
:1052F00023EA0404214351605DF8044B70472DE913
:10530000F0410446904603689A6912F0100F65D088
:105310000D461022DA6100273E4623689A6912F092
:10532000200F32D18EBBB5F1FF3FF6D0FFF798FFCB
:10533000A0EB0800854201D3002DEED121684A6818
:1053400002F4804294F84230DBB2886910F4004FD6
:1053500004D0203B18BF012302B973B923689B69AD
:1053600013F0200FD9D1FFF77BFFA0EB080019281D
:10537000F4D947F020070126CFE74B6843F4804378
:105380004B60FFF76DFF8046E8E70EB92022DA6137
:1053900047F0040701262268936913F4807F05D043
:1053A00047F001074FF48071D161012613F4806F3B
:1053B00006D047F0080722684FF48061D1610126CA
:1053C00013F4007F06D047F0020723684FF4007201
:1053D000DA6101262EB93046BDE8F08100273E464D
:1053E000D9E72046FFF75CFF2268536823F0FF737C
:1053F00023F48B3323F4FF7323F001035360636CB6
:1054000047EA03056564202384F84130002384F8CB
:10541000423084F84030DEE770B504460D4616464B
:1054200023689B6913F0020F22D132462946204699
:10543000FFF765FFF0B9B5F1FF3FF1D0FFF710FFBF
:10544000801B854201D3002DEAD123689B6913F0AC
:10545000020FE5D1636C43F020036364202384F8DA
:105460004130002384F8423084F84030012070BD80
:10547000002070BD012070BD2DE9F04105460E46AB
:1054800014461F462B689B6936EA03030CBF0123B1
:105490000023A046A34222D1B7F1FF3FF2D0FFF78D
:1054A000DFFE069BC01A874201D3002FEAD12B688A
:1054B0009B6936EA03030CBF012300239845E1D121
:1054C0006B6C43F020036B64202385F8413000238C
:1054D00085F8423085F840300120BDE8F081002099
:1054E000BDE8F08170B582B0044615461E46184BE3
:1054F00000934FF08073F2B2FFF7E3FE079A06992C
:105500002046FFF789FFE8B9012E0CD023682A0A4C
:105510009A62079A06992046FFF77EFFB0B9236882
:10552000EDB29D6202E02368EDB29D62079B00939D
:10553000069B002280212046FFF79EFF034610B104
:10554000012300E00123184602B070BD0123FAE7F1
:105550000020008070B582B0044615461E46184BE8
:1055600000930023F2B2FFF7ACFE079A069920469B
:10557000FFF752FFE8B9012E0CD023682A0A9A627D
:10558000079A06992046FFF747FFB0B92368EDB2A6
:105590009D6202E02368EDB29D62079B0093069B2B
:1055A000002240212046FFF767FF034610B1012388
:1055B00000E00123184602B070BD0123FAE700BFE6
:1055C0000020008070B504460D46164604E02368AE
:1055D0009B6913F0200F12D023689B6913F0200FF2
:1055E0001BD1324629462046FFF789FEB8B9FFF79E
:1055F00037FE801B8542EAD3002DEDD1E7E7636CCF
:1056000043F020036364202384F84130002384F8AE
:10561000423084F84030012070BD002070BD012070
:1056200070BD0000002857D010B5044690F84130F6
:10563000002B41D0242384F841302268136823F0E2
:10564000010313602268636823F0706313612268AA
:10565000936823F400439360E368012B31D0226800
:10566000A36843F404439360E368022B2FD02268BD
:1056700051681A4B0B4353602268D36823F40043EC
:10568000D3602268236961690B43A16943EA01235E
:10569000D3602268E369216A0B43136022681368B0
:1056A00043F00103136000206064202384F841303C
:1056B000206384F8420010BD80F84030FEF7A2F865
:1056C000B8E72268A36843F400439360CCE72368FB
:1056D0004FF400625A60CAE7012070470080000260
:1056E0002DE9F04782B0BDF82C5090F84140E4B26B
:1056F000202C04D00223184602B0BDE8F0870A9C93
:10570000002D18BF002C05D090F84040012C06D188
:105710000223F0E74FF4007343640123EBE798465C
:1057200091460E4604464FF0010A80F840A0FFF76C
:1057300097FD07460090192352464FF4004120463A
:10574000FFF79AFE08B10123D5E7212384F8413001
:10575000402384F84230002363640A9A62626585BC
:10576000636301970C9B009343464A4631462046AB
:10577000FFF7B8FE70B9638D9BB2FF2B0FD9FF22E4
:105780002285002300934FF0807331462046FFF7B7
:1057900098FD21E0002384F840305346ABE7628D4A
:1057A00092B22285002300934FF00073D2B23146AB
:1057B0002046FFF786FD0FE0628D92B2228500231E
:1057C00000934FF00073D2B231462046FFF779FDC7
:1057D000638D9BB2002B33D03A460C992046FFF7DD
:1057E0001BFE002849D12368626A12789A62636AB4
:1057F00001336362638D9BB2013B9BB26385238D52
:10580000013B9BB22385628D92B2002AE0D0002B2F
:10581000DED100970C9B002280212046FFF72CFE52
:1058200068BB638D9BB2FF2BC6D9FF222285002364
:1058300000934FF0807331462046FFF742FDC7E7E3
:105840003A460C992046FFF7BDFE0346C8B92268C8
:105850002021D1612068426822F0FF7222F48B324D
:1058600022F4FF7222F00102426084F8411000220B
:1058700084F8422084F840203DE701233BE70123E0
:1058800039E7012337E700002DE9F04782B0BDF882
:105890002C5090F84140E4B2202C04D0022318464A
:1058A00002B0BDE8F0870A9C002D18BF002C05D07F
:1058B00090F84040012C06D10223F0E74FF400732A
:1058C00043640123EBE7984691460E4604464FF0A9
:1058D000010A80F840A0FFF7C3FC07460090192397
:1058E00052464FF400412046FFF7C6FD08B10123A0
:1058F000D5E7222384F84130402384F84230002346
:1059000063640A9A62626585636301970C9B0093E6
:1059100043464A4631462046FFF71CFE70B9638D68
:105920009BB2FF2B0FD9FF222285414B00934FF0F2
:10593000807331462046FFF7C4FC21E0002384F841
:1059400040305346ABE7628D92B22285384B0093CC
:105950004FF00073D2B231462046FFF7B2FC0FE0A1
:10596000628D92B22285002300934FF00073D2B271
:1059700031462046FFF7A5FC638D9BB2002B34D047
:1059800000970C9B002204212046FFF775FD00289C
:1059900048D1636A2268526A1A70636A013363628B
:1059A000228D013A92B22285638D9BB2013B9BB25C
:1059B0006385638D9BB2002BDED0002ADCD100977B
:1059C0000C9B80212046FFF757FD68BB638D9BB27F
:1059D000FF2BC5D9FF222285002300934FF080734F
:1059E00031462046FFF76DFCC6E73A460C99204643
:1059F000FFF7E8FD0346C8B922682021D16120687D
:105A0000426822F0FF7222F48B3222F4FF7222F0FD
:105A10000102426084F84110002284F8422084F898
:105A200040203CE701233AE7012338E7012336E72A
:105A30000024008090F84130DBB2202B01D00220FE
:105A4000704790F84030012B20D0012380F840307F
:105A5000242380F841300268136823F001031360A7
:105A60000268136823F480531360026813681943B3
:105A700011600268136843F001031360202380F86B
:105A80004130002380F840301846704702207047AC
:105A900090F84130DBB2202B01D00220704790F803
:105AA0004030012B1ED0012380F84030242380F8A1
:105AB00041300268136823F0010313600268136821
:105AC00023F4706343EA012111600268136843F014
:105AD00001031360202380F84130002380F8403018
